:020000040800F2
:10000000680B002085010008DD4D0008354C000814
:1000100000000000000000000000000000000000E0
:1000200000000000000000000000000089540008EB
:1000300000000000000000001154000833570008C1
:1000400097010008000000009701000897010008D0
:100050009701000897010008970100089701000820
:1000600000000000970100089701000897010008B0
:1000700097010008970100089701000800000000A0
:10008000AD57000897010008000000009701000824
:1000900097010008970100089701000897010008E0
:1000A000970100089701000897010008495E0008C1
:1000B000755E000800F002F800F054F80CA030C89B
:1000C000083824182D18A246671EAB4654465D46D4
:1000D000AC4201D100F046F87E460F3E0FCCB6464A
:1000E0000126334200D0FB1AA246AB4633431847E1
:1000F0007C7600009C760000103A02D378C878C164
:10010000FAD8520701D330C830C101D504680C6059
:10011000704700000023002400250026103A01D378
:1001200078C1FBD8520700D330C100D50B607047AF
:1001300010B5642902D100F025F910BD002010BDD2
:100140001FB501F095FD04000020002107F03EF9E5
:10015000401C60600020002107F022F9E0601FBD14
:1001600010B510BD01F050FA1146FFF7E9FF06F097
:1001700085F901F001FD03B4FFF7F2FF03BC02F0C3
:10018000A7F800000748804707480047FEE7FEE75A
:10019000FEE7FEE7FEE7FEE704480549054A064B91
:1001A00070470000AB570008B50000086805002044
:1001B000680B002068070020680700204343514374
:1001C00030B55C18010C130C0D4692B25D4380B241
:1001D00051432C19054655430A0C09044D19624137
:1001E0005843010C00044019514130BDFEB505468D
:1001F00010460C46184373D0AE468C460020AD1A0C
:1002000001469C4167D36646002701243D46B61A45
:100210009D4102D313463A462124654676462F0473
:10022000360C3E432D0CB61A9D4104D3150C1B040D
:100230002B4312041034654676462F06360A3E4399
:100240002D0AB61A9D4104D3150E1B022B43120230
:100250000834654676462F0736093E432D09B61AFF
:100260009D4104D3150F1B012B431201241D65462C
:100270007646AF07B6083E43AD08B61A9D4104D393
:10028000950F9B002B439200A41C65467646EF0712
:1002900076083E436D08B61A9D411AD392185B4109
:1002A000641C16E00018764665464941B71A9D4120
:1002B0000191009009D36046B11A98418E46844658
:1002C000009801990025401C6941DD0752082A4326
:1002D0005B08641EE6D57246634603B0F0BDFFE7D7
:1002E00000200146C046C0462A462346F5E70000E6
:1002F0000FB41CB5074B06AA7B44694600900598CD
:1003000000F0B3FF0020694600F0C2FF1CBC08BC2F
:1003100004B01847950F0000F8B50E4604460020BB
:1003200020622046E1688847002829D0252802D08D
:100330006268A16820E0E168204600278847050040
:100340001ED028464138192802D80127FF0220353F
:100350003246204627602946FFF7EAFE002808D0EB
:10036000012804D0F61DF608F6000836D9E7361D38
:10037000D7E762682846A1689047206A401CCFE70B
:10038000206AF8BDF7B5002575291068009914A6F4
:1003900011D0C046C046002802DA404211A608E04B
:1003A000009909688A0701D50FA602E0490704D51C
:1003B0000EA6012501E0C046C046009F0024243758
:1003C00004E000F0C1FF30313955641C0028F8D139
:1003D0002B4632462146009800F0E9FEFEBD0000A3
:1003E000000000002D0000002B0000002000000095
:1003F00030B5441C03E00178401C00290DD0810772
:10040000F9D10B4BDD0104C8D11A91432940FAD030
:10041000001B0A0603D0C01E30BD001B30BD0A04FD
:1004200001D0801E30BD0902FCD0401E30BD00004E
:100430000101010101E004C0091F0429FBD28B075F
:1004400001D50280801CC90700D0027070470029C6
:100450000BD0C30702D00270401C491E022904D3EE
:10046000830702D50280801C891EE3E70022EEE7A5
:100470000022DFE7002203098B422CD3030A8B42C0
:1004800011D300239C464EE003460B433CD400228C
:1004900043088B4231D303098B421CD3030A8B429E
:1004A00001D394463FE0C3098B4201D3CB01C01A6C
:1004B000524183098B4201D38B01C01A5241430937
:1004C0008B4201D34B01C01A524103098B4201D325
:1004D0000B01C01A5241C3088B4201D3CB00C01A92
:1004E000524183088B4201D38B00C01A524143080A
:1004F0008B4201D34B00C01A5241411A00D201462F
:100500005241104670475DE0CA0F00D049420310C7
:1005100000D34042534000229C4603098B422DD316
:10052000030A8B4212D3FC22890112BA030A8B42BE
:100530000CD3890192118B4208D3890192118B420D
:1005400004D389013AD0921100E08909C3098B4292
:1005500001D3CB01C01A524183098B4201D38B01D5
:10056000C01A524143098B4201D34B01C01A524178
:1005700003098B4201D30B01C01A5241C3088B42BD
:1005800001D3CB00C01A524183088B4201D38B00A8
:10059000C01A5241D9D243088B4201D34B00C01A32
:1005A0005241411A00D20146634652415B10104647
:1005B00001D34042002B00D54942704763465B108F
:1005C00000D3404201B50020C046C04602BD70477E
:1005D000704770470246C80FC00781434B0030B5D3
:1005E0004B405B009B0D20D01923DB06C91801236B
:1005F0001B05994220DB0324A40704251346AB40C6
:100600000BD3002B04D1EB0613409B00E34204D430
:1006100001246407002312195941FF231B05994245
:100620000BD2C9000143500F09E0CB0204D50143AE
:100630000803024305D0054830BDFF21C905084322
:1006400030BD084607210905884330BD0000C07F42
:10065000F0B50C46871A9C410D46861A9D4103D27F
:10066000C01BA141D21963410D0D1F0DC94EEC1BDA
:10067000AE435CD07F057F0D0026002F51D02D05A5
:10068000AC46A943DD020123ED0A1B051D432023CF
:100690001B1B24D41746E740381871412F46E7400A
:1006A000CC199D402818314661410C0D27D1614479
:1006B0009A4013D50023401C594152000ED14008E6
:1006C000400001224B005205D34207D305204007CA
:1006D000C14201D5B04900E0B0493046F0BD6B00E1
:1006E000002A00D001229A181F23203C1B1B01D591
:1006F000002302E0E540281871410C0DD7D00124F9
:1007000024050919C407CD0740084908E40F284308
:100710006144002CD5D00024401C61419A40D0D1C6
:10072000CDE76A05520DD9D1C90FC907D5E79C4D50
:100730004E00002801D0012400E0002434195F009D
:10074000002A01D0012600E00026BE19954FAC42D8
:100750000CD8AE420AD8B44206D001256D05EC4251
:10076000BCD010461946F0BD9942FCD00020394655
:10077000F0BDF0B51FB40C460F46811A9F412546C7
:10078000861A9D4106D20125ED076F40401ABC41F3
:1007900052187B41210D1E0D8D1BAC467D4D8D43A6
:1007A0007ED075056D0D7CD00D05AE46AC431B03A8
:1007B0001B0B794D52429D41202366469B1B14D34F
:1007C0001746F740381800260090744160462F46BF
:1007D0000741E41900989D402818664116D47146D7
:1007E00071189A4025D5012320E093182A466A41C2
:1007F0005200002B00D0521C1E23203E9B1B002BBE
:1008000061DD3541EE1728186641E8D500187641BC
:100810005B1C9A4000D3401C4B05F3181524E340A1
:1008200010D3002B52D071467118D30FC01802D3C9
:10083000491C05B0F0BD0123DB079A42F9D14008FD
:100840004000F6E701225205B21801D1002853D02A
:100850000123CC0ADB029943891E002A08D1020C2D
:1008600003D0020C0004103902E0024600202039B7
:100870000023550B05D112020823550B01D152015B
:100880000D23550C01D112011B1DD50C01D1920075
:100890009B1C150D01D152005B1C2025EE1A01E0B6
:1008A0002CE022E00546F54015439840CA1AE107BE
:1008B00069181305C918002ABBDA03204007081875
:1008C000C10FC9070FE071466118B2E7F107400890
:1008D0000843711071444A000CD001235B059A4211
:1008E000A7D2C90FC9070020A3E74905490D26D1A2
:1008F000002001E00028F4D100219AE7284D66008D
:10090000002801D0012100E0002171185F00002AB9
:1009100001D0012600E00026BE19224FA94210D8BE
:10092000AE420ED8B14208D001256D05E94206D08D
:100930001946A802414010467BE79C4201D021465F
:1009400077E70020394674E710B50C465C4005D5C2
:100950000124E4076340FFF70CFF10BDFFF778FEAA
:1009600010BD30B40C465C4004D50124E40763405C
:1009700030BC6DE630BCFCE670B50124E407614094
:100980000D465D4002D4FFF763FE70BD6340FFF784
:10099000F0FE70BDFF0700000000F0FF0000F07FD8
:1009A0000000E0FF0000F87FF0B5F94D0C091E09CA
:1009B0002C402E402F468BB0A7437DD0B543FCD0B2
:1009C000002E7AD0002CFCD00D465D40ED0F254363
:1009D000AC1BFF25AD0464190894C502440DC9027F
:1009E0002143500DDC0204430120C00701430443AE
:1009F000D2020191200C110C00958C460104234673
:100A00008B430A9161460904E24D8A430991010A28
:100A10007D4449198039097805464D4301266D18F2
:100A2000F605751B6943C90C640B891C4C4364189B
:100A3000B5012C1B250C2E04B4434C434D43210C13
:100A4000691889090591009DE90701D00121C907AD
:100A500004912C4601996708CD072F434C08059D4A
:100A6000E10B4D432D0C29466646754302950D4614
:100A700045432E46029D7D1BB44100950D465D43C6
:100A800001942C0C2F040D465543AE462D0C3D43CE
:100A9000029503947546049C2D04641B049406D2AD
:100AA000029C039D641C002675410395029401ACD1
:100AB00070CC009F7D1B01E03EE162E1B44109047E
:100AC0000095079101940599A4086143090C0C460F
:100AD0004443650BE7040C4666467443A646640B24
:100AE0003C43039502947446049DE4042C1B049437
:100AF00006D2029C039D641C002675410395029456
:100B000001AC70CC009F7D1BB44101940C465C434A
:100B10000095650FE7000C465443A646640F3C431E
:100B2000039502947446049DE4002C1B049406D2A1
:100B3000029C039D641C002675410395029401AC40
:100B400070CC009F7D1BB441AE09AF06049DC90067
:100B5000AD092F43049DA406AD060495079D3443BB
:100B600069180791059DE10B4D432D0C29466646FA
:100B7000754302950D4645432E46029D7D1BB441AB
:100B800000950D465D4301942C0C2F040D465543F2
:100B9000AE462D0C3D43029503947546049C2D04EE
:100BA000641B049406D2029C039D641C00267541BC
:100BB0000395029401AC70CC009F7D1BB44101945D
:100BC0008C050694079C890A611800950791019C81
:100BD0000599A4086143090C0D464543680BEF04D1
:100BE0000D46644665436C0B3C43049FED047D1B3E
:100BF000AC4602D20025641C6841009E019D371B53
:100C000085410846584301950C46460FC50054439C
:100C1000600F28436546E4002C1B02D20025401CCF
:100C20006E41019D3F1AB5412846BD098006284303
:100C30008446A009BF064E020699A406761807430B
:100C4000079D002068410A99079019430020099BDD
:100C500000906046FF1913434041E20F64003A439D
:100C6000A4460446D71A8C41A04203D90120009023
:100C700020463A46C70F941840416246D20F22439D
:100C8000644664000494009CBE466400D71AA446DF
:100C9000044602978C417746002F01D1A04204D927
:100CA0006046401C8446029A2046C40FA64694180B
:100CB0004041049A0546D20F224364466400D31A89
:100CC0008D417146002901D1A84202D928461A4611
:100CD000641C10430122002800D01643610200204A
:100CE000079B891904465C410223002C02DB49184A
:100CF00013466441089DCE0A2D145D194B05670506
:100D0000E10A2C050D1908993E43C9076940002BDB
:100D100008D0934006D30022761C5141002B01D10C
:100D2000760876001C4A002D43DB154241D0AA43C9
:100D30003FD030460BB0F0BD06180D464D41174C64
:100D40007642AC411AD395181C465C41134A6D4259
:100D5000A24113D3012252054C00D4420AD15C00B7
:100D6000D4420BD04B4002D592021143E2E7490036
:100D70004908DFE75940C90FC90718E000200849B2
:100D8000D8E7054801420DD10342F7D0F2E7000051
:100D90000000FF07AD6B00000000F07F0000E0FFE7
:100DA0000000F87F114859400143C0124140002023
:100DB000C0E70123089A9B069A4205DC03225207EA
:100DC0008918C90FC907B5E7052252078918074ACC
:100DD0001143D2125140ADE770B515461C4602468C
:100DE0000B4628462146FFF7DFFD70BDFFFFFF7F62
:100DF00030B50346CA02400D1043164D164C0A1575
:100E000002D02043002A06DBAA1A002A12DDD040B5
:100E1000FF2A0BDC30BD5205520D01D140004008C5
:100E2000AA1A07D4D0404042FF2A01DD002030BD7D
:100E30000028FCDD4A00002B01D0012000E000204A
:100E4000101801225205D042F0D8C817C0436040A4
:100E500030BD00001E040000000000800346CA02EE
:100E6000400D10B510430A1504D00124E4072043B7
:100E7000002A05DB0A4CA21A04D4D040FF2A00DD68
:100E8000002010BD4A00002B01D0012000E000200E
:100E9000101801225205D042F2D8C817C04310BD25
:100EA0001E0400001F22030C02D10F22000402D0F6
:100EB000030E03D004E00020014670470002083A08
:100EC000030F01D10001121F830F01D18000921E78
:100ED000002801DB4000521E120551184205C012C5
:100EE000411810467047C10FC90700D04042012287
:100EF00092071143D6E701218907D3E7F0B58B4C60
:100F00000F09254689B0BD437BD01D092646AE4357
:100F1000FAD00E465E402740F60F3E43254071D082
:100F200024012142FBD0FF24AD19A4042D1B0395FD
:100F300001252D05DB02DB0AC9022B43C90A29431F
:100F40001E010901040F130F050121431701880B2E
:100F5000820391432D098C46A90B1E438A039543B6
:100F6000B30B9A0396433F09BA0B9403A743029627
:100F70002E467E430497B6464E19D7190C46019665
:100F8000544305977E43371B7646BF1B3601B64652
:100F9000BE0B361900967646BC043719009C01D367
:100FA000641C00946400002F01D001263443029E8B
:100FB000049F754366467E430496760034196E009E
:100FC00034190094029C019E1C196643751BAE46A1
:100FD000069465464519059C05956C43594375462D
:100FE0000891691A0191049E01465143A41B049182
:100FF000611A009C0791E10605D0610901221143A5
:1010000002E072E06EE06109089D00272C0A2D06BF
:101010006918049D7C412A0A2D066918019D6241C8
:10102000AC0DAD026D185441079A910D92025519FD
:101030006141029A644658435443069B059A5A43B9
:10104000121A131B9A0E9B015B187A41010B0005C3
:10105000C3185141220A200644195A419A4200D22B
:10106000491C01204002814203D315230226F64386
:1010700002E014230326F6432020C51AA940174690
:10108000AF40DA400A4320460399D8400914731848
:1010900019055118039A3843D2075140AC4009D082
:1010A0000122944006D30022401C5141002C01D162
:1010B000400840001E4A934212D301220398920630
:1010C000904207DB0520400709181A480143C01267
:1010D000414004E0032040070818C10FC907002061
:1010E00009B0F0BD0020F107FAE705180C464C41A5
:1010F00011486D42A04115D394181A465A410E4822
:10110000644290410ED301204A004005824209D337
:101110005A00824206D35940C90F084AC907002025
:101120001143DDE700200649DAE700000000FF0771
:10113000FE070000FFFFFF7F0000E0FF0000F07FE0
:101140000000F87F0121C9050123411842001B0658
:10115000D3185B0E0AD0C1100722D20689184007A7
:101160005242D14201D5520089187047090208D570
:101170000146002A03D0C10FC9070020704710465E
:101180007047420202D0002002497047072109053A
:101190000143F4E70000F87F10B500F061F9006842
:1011A00010BD10B5044600F05BF9046010BDFFB53A
:1011B00004460D4681B0243000902168880604D58D
:1011C0001022E0699143216000E00120A84201DD86
:1011D000471B00E000270498A1697A191018081A23
:1011E000A0612078C00602D42046C046C046002632
:1011F00008E003986268A168805D9047206A401CFF
:10120000761C206204988642F3DB2078C0060AD55B
:101210002046C046C04606E06268A168302090477C
:10122000206A401C206238467F1E0028F4DC07E05C
:1012300000986268A168405D9047206A401C206267
:1012400028466D1E0028F3DC2046C046C0462078A4
:10125000000602D5022005B0F0BD0120FBE700002A
:1012600001694A1C02610878704700B58FB002918D
:101270000021059105490193794403911146049099
:101280006846FFF749F80FB000BD0000E5FFFFFF1B
:101290000A681070521C0A60704700000FB40023E7
:1012A00000B589B00CA900910B99CB60224B7B440F
:1012B000224A7A440792042206930192204A02921B
:1012C000204A7A446B4608920246002006F052F902
:1012D00009B008BC04B0184770B5064615460C4660
:1012E000324686B00020C04301900020049004A83C
:1012F000009102916946FFF7D1FF02460498211838
:10130000002D05D0002801D0084600E020462860C6
:10131000049800280DD0002A02DD0098884208D0E9
:101320003246081B6946019004A800940294FFF716
:10133000B5FF06B070BD0000C9010000E501000066
:10134000FFFFFF7FA301000001468008081A020981
:101350001018020A1018020C1018C0088200121887
:101360005200891A01E0401C0A390A29FBD2704751
:10137000F8B5224C4E00069DA6420AD8A64201D1DD
:10138000002806D15E00A64203D8A6420AD1002A50
:1013900008D00D24240425422CD02946002000F03A
:1013A0008EF8F8BD0C461C430CD4994202D0EFF3E2
:1013B0000080F8BD904202D0EFF30080F8BDEFF35B
:1013C0000080F8BD09242407E5008B4206D0EFF326
:1013D0000080A043591A06D2284304E0101A05D30E
:1013E000EFF30080A04380F30088F8BDEFF30080A6
:1013F000A043F1E7009500F079F8F8BD0000E0FFA8
:1014000070B505464800440D124B0020002C0AD050
:10141000634008D09A4206DA6642B24203DD120502
:101420004019514170BD002C08D0002B09D0C90FC4
:10143000C907002AF6DB084A114370BDC90FC90766
:1014400070BD28460A03104302D00020034970BD36
:10145000284670BDFF0700000000F07F0000F87F05
:10146000004870470405002010B5044600F0ECF871
:101470000068005DC007C00F10BD4268002A08D098
:1014800001680B78491C002B03D0521E06C0184679
:1014900070470121C160881E70474268002A0BD046
:1014A000C3680168002B07D183688B4204D0491EB2
:1014B000521C06C0002070470020C0437047C8027D
:1014C00012D54803400F002804D0C803C0430121AF
:1014D00088407047EFF300800001000903210907ED
:1014E000084380F3008870470020704710B5002043
:1014F0000249029A00F08CFB10BD00000000F87F4A
:10150000F0B53D4B02460C461C400020002C63D039
:101510003A4D8B4366D000296BDB0B0D1D05A943AB
:1015200001252D0529430124FD33E34001D3921801
:101530004941FF3381339C468B02940D01212343A3
:1015400089074C42920200271B198C105D1A04D4A3
:101550002D1B02D42B466500491992185B41640883
:10156000F4D15C1A08D40125ED07EE175519744122
:1015700002D42A462346491C94185B410122920753
:101580001D46E61B8D4106D4B61A854103D42B4671
:10159000550034467F1924195B415208802AEFD147
:1015A000234300D0022338460A22D04001D301222F
:1015B00013438A0510436246890A12058918002BD5
:1015C00009D00122D34002D30022401C5141002BFC
:1015D00001D140084000F0BD0B03134307D0C90FF1
:1015E000C907F0BD0803104303D1002901DB1046F1
:1015F000F0BD00202946F0BD0000F07F0000F87F1C
:1016000000487047040500207546FFF7F9FFAE4615
:10161000050069465346C008C000854618B020B58D
:10162000FEF7BAFD60BC00274908B6460026C0C5D3
:10163000C0C5C0C5C0C5C0C5C0C5C0C5C0C5403D8A
:1016400049008D467047000010B500F011FB001DE9
:1016500010BD00BF795D0000FFB58BB00878FF2892
:1016600006D0491C2D2805D000230020009009E059
:1016700000200EE00123F8E7009A0A246243801854
:10168000491C00900878FF28F6D1002B02D0009862
:1016900040420090002503952C460D9800782D2897
:1016A00001D02B2815D10D99491C2D280D9102D060
:1016B000002003900DE00120FBE7401C214600279D
:1016C0000A223B460D902846FEF778FD35183C4629
:1016D0004C410D980678FF2EEFD1002108460020DE
:1016E000C0460399002902D081004018400800023A
:1016F000860F012E01DD0026F6430E99009847184B
:10170000284620430BD0FF20F530C7421ADA039851
:10171000C1070B98002E41600ADD012009E0039803
:10172000C1070B9841600B99002008600FB0F0BD15
:1017300000200B990860FFF793FE02210160182139
:1017400008461AE0FF20F530874219DD002E02DA44
:10175000FC48784401E0FC48784406C80B9806C071
:101760000B9803994068C90708430B994860FFF735
:1017700077FE02210160142108460020C046D5E70B
:10178000002108460020C04639000A9001D5724267
:1017900000E03246002900DA794207A800F06CFA2E
:1017A00007AB07CB04AB07C3E84800900020014615
:1017B000214304D12C460546E44920390091210CEF
:1017C0000904014306D1290C24040C4300992D047B
:1017D00010390091210E0906014306D1290E240279
:1017E0000C4300992D0208390091210F090701438C
:1017F00006D1290F24010C4300992D01091F0091E6
:10180000A10F8907014306D1A90FA4000C43009939
:10181000AD00891E0091E10FC907084304D100986B
:101820006D196441401E0090002F0295019406DD61
:1018300032466846012304A900F0B2FC05E001230A
:101840003246684604A900F000FD044603980D46A0
:10185000002802D00120C007444000210846002093
:10186000C0460A99BA4E48400007800F07D1600071
:101870004008284303D06000400DB04214D1FFF768
:10188000EFFD022101606000400DB0420CD1B14873
:10189000784406C80B9806C00B98E10FC90740684A
:1018A00008430B99486041E70B9844600B9805602A
:1018B0003CE7FFB51F4695B0002000250C909E68C0
:1018C0005C68ED43139000F0D3F9C0680168405C98
:1018D0001490B96916986D1C88470A90396A884730
:1018E0000028F6D10A98401C0AD00D20C00184437C
:1018F000002E12DD0A982B2809D02D280DD103E0E7
:101900000020C04319B0F0BD012080020443B96932
:1019100016986D1C8847761E0A90600504A901D5AB
:101920002D2000E02B206A46491C107410A8002EC0
:101930000D910B903BDD0A98692805D0492803D00A
:101940006E2801D04E281DD13B46039002200296FE
:10195000179A1699C0430095019405F01BFEC11C0F
:10196000D0D10FE0B96916986D1C88470A90012004
:10197000761E40020443179805601398401C002E01
:10198000139014DD0A983028ECD0782801D058281C
:101990000DD1139801280AD13B460296179A169941
:1019A000001F0095019405F0EDFDC11CAAD114990A
:1019B0000A98884246D18020044308E00C98179981
:1019C000401E0C90012040020443681C0860B96965
:1019D0006D1C1698761E884730280A90EED031E0AC
:1019E0001499884205D1200603D480200443761E32
:1019F0001EE00A9804F0A8FB002826D0012008A9C0
:101A0000400204430D980331761E88420BD20A9897
:101A10000D99303808700D98401C0D90200607D5A0
:101A20000C98401E03E0200602D40C98401C0C9039
:101A3000A00502D51799681C0860B96916986D1C35
:101A400088470A90002ECBDC59E0002E57DD0A981B
:101A5000652801D0452852D1A00550D50320B96989
:101A6000000284436D1C1698761E8847002E0A904B
:101A70000CDD2B2804D02D2808D1FF200130044391
:101A8000B96916986D1C8847761E0A90E00501D545
:101A90002D2100E02B210B9801700B98401C0B901E
:101AA000009025E0012012A9400204430B98013167
:101AB000761E88420ED20A980B9930380006000E26
:101AC000087003D100990B9888420AD90B98401CE2
:101AD0000B9006E0E00501D51F4801E01E4840429A
:101AE0000C90B96916986D1C88470A901798056084
:101AF000002E04DD0A9804F027FB0028D2D1F969F2
:101B0000169888470D99FF2004AA08700B99087051
:101B100000200E900F900C9B10A90EA8FFF79CFDC3
:101B2000A00502D40120C043ECE62420044215D0D5
:101B3000E0071FD138680F9A0E99031D3B600068BB
:101B400006C017E03E600000306000003E4000002C
:101B5000FF070000F85E0000F1D8FFFF0EA96846FD
:101B600004F07CFAE00705D13868009A011D39605D
:101B7000006802602846C5E610B50446C046C04667
:101B80002046FEF7F8FA10BD024670B50A439207E8
:101B90002AD11E4DEE0104C808C9541B9443344099
:101BA00017D0D0B2D9B2401A2106014310D190B259
:101BB00099B2401A210401430AD110021902000A05
:101BC000090A401A2102014302D1100E190E401ACF
:101BD00070BD9A42DFD010BA19BA884201D90120EB
:101BE00070BD0020C04370BD02780B78401C491CBA
:101BF000002A09D09A4207D102780B78401C491C70
:101C0000002A01D09A42EFD0D01A70BD0101010123
:101C100010B50C461107090F092904D00A290AD06A
:101C200008290CD104E011460820FFF748FC06E023
:101C3000510606D501E0510601D50120C007214615
:101C400010BDD10607D501010909CC084907000ECE
:101C50000006044309E0410F20024907000A01433E
:101C6000200E00061D22D14101430846E7E700008F
:101C70000048704724050020F7B516468AB033485F
:101C800078446C4603467C33C06F5A689B680DC429
:101C90002E487844763003AC0DC80DC43720C001FF
:101CA000081837211B30FEF7EFFB05460C46803D38
:101CB0001B3C02D56442012000E00020002709906F
:101CC00010E0E0070CD00C202049784379443246DC
:101CD0004C3941186846012300F054FA6B4607C39B
:101CE00064107F1C002CECD1184F7F442E3F16E06F
:101CF000E80712D02001C0190EC806910893079278
:101D00000068F04201D1981908903246012306A9D3
:101D100003A800F037FA03AB07C36D10641C002D55
:101D2000E6D10998002806D032466946012303A867
:101D300000F07EFA05E001233246694603A800F070
:101D400021FA0A9B07C30DB0F0BD0000545A0000F1
:101D5000034640000A4610B5400D0BD00121C907CB
:101D60000F24A40200191C0364082143540D2143CD
:101D7000D20207E000210120F2E7D40F49002143FD
:101D80005200401E0029F8DADB0FDB07184310BDB4
:101D9000FFB50D46144685B04868516804F080F8D8
:101DA00000910190A868A16804F07AF8029103906C
:101DB000A868616804F074F8029A121882420292CC
:101DC00001D2012000E00020019A0B18D21800284F
:101DD000019202D08A4202D903E08A4201D2012054
:101DE00000E000200099081800906868A16804F0DD
:101DF00057F8029A12188242029201D2012000E0A2
:101E00000020019A0B18D2180028019202D08A42B1
:101E100002D903E08A4201D2012000E000200099AB
:101E200008180090286821684000490040084908C7
:101E30004018FA49471814E001994000C90F0843B7
:101E40000090019802994000C90F08430190029840
:101E500003994000C90F08430290039840007F1E79
:101E6000039000980028E7DA0898002801D0EC4E8B
:101E700000E00026B74201DA012000E0002000283F
:101E800004902AD0F71BF806C00E15D0029B202123
:101E9000091A039A8B401A430392029A019BC2408B
:101EA0008B401A430292019A009BC2408B400099DA
:101EB0001A430192C14000917B110DD06F4603205F
:101EC000C11A03D500218200B95003E08A008100C5
:101ED000BA587A50401EF3D5374603980299002825
:101EE00000D00120014308980291002808460CD038
:101EF000002800D001200199019A490508430121D9
:101F0000D20AC902D202019200E001210E9B0122F5
:101F1000D207012B02D0002B03D013E0002807D1F9
:101F200020E0904204D890420CD1019B0B4209D092
:101F3000019B5918019105D10099491C009101D1CB
:101F40007F1C009200280DD0102108460020C046BA
:101F50000498002806D00F98002803D008210846CE
:101F60000020C04628682168019B009A4840C10FA4
:101F70000598C90739430EC009B0F0BDFFB587B059
:101F8000099A089808995368926840688968964643
:101F90000022039317469446089A12685300099A40
:101FA0005B081268520052089A1A9E4BD4180A9A7B
:101FB000002A01D0352200E04022069200220123AF
:101FC00015460492DB07059324E0002D05D17546E4
:101FD0000346039E4D1BB34109D375466646039BDA
:101FE000491B049D9841059B7519AC465F416346AA
:101FF0003B4308D0059B049EDD0776082E435B0813
:102000000496059301E0521E641EC50FED074918A2
:102010004041521C069B9A42D7DB002D04D17546E5
:10202000039A6B1A824101D203200CE0039A0B46FB
:102030006B404240134303D0014303D0012002E030
:10204000022000E0002061460191002100970291EA
:102050000A99002905D0614640020143704B019165
:1020600002E08007002302909C4201DA012000E098
:10207000002007003AD01A1BD006C00E15D0029DD2
:102080002021019C091AC5408C402543029C8C40AC
:1020900000D001242543019C0295009DC4408D4041
:1020A00000992C430194C140009154111DD06D46FC
:1020B0000221002202290CD10320001B07E0002886
:1020C00004DB8600AE59002E00D00122401C0328FC
:1020D000F5DB081B02D588002A5004E08000285850
:1020E00010438A00A850491EE3D51C460A980028D0
:1020F00002980CD0002800D001200199019A4905CE
:1021000008430121D20AC902D202019200E0012152
:10211000109B0122D207012B02D0002B03D013E029
:10212000002807D11FE0904204D890420CD1019BB7
:102130000B4209D0019B5918019105D10099491C06
:10214000009101D1641C009200280CD01021084697
:102150000020C046002F06D01198002803D0082187
:1021600008460020C04608980999019A009B00681B
:1021700009684840C10F0798C907214382600AC017
:102180000BB0F0BD00B585B0019300920A46014640
:10219000002302A8FFF7FCFD02A807C805B000BD98
:1021A000FFB50A461F4685B00799019301230091A8
:1021B000014602A8FFF7ECFD02990398049ECA0F9E
:1021C0004900D20700920F22490892028C1A00217E
:1021D000002800DB0C46450013486D08844214D3E8
:1021E000079A002A04DA441E0026104DF64302E046
:1021F00004460D460E46102108460020C046002F1A
:1022000003D0042108460020C0462005E90A0843FF
:10221000009908436905F20A1143ADE602C0FFFFC9
:10222000013C0000FF3F0000FF070000FFFFFF7FB1
:1022300000B585B0019300920A460146002302A82A
:10224000FFF79CFE02A807C8A8E7FFB50A461F468D
:1022500085B00799019301230091014602A8FFF779
:102260008DFE02990398049ECA0F4900D20700927E
:102270000F22490892028C1A0021002800DB0C462C
:10228000450011486D08844214D3079A002A04DAE5
:10229000441E00260D4DF64302E004460D460E4650
:1022A000102108460020C046002F03D00421084614
:1022B0000020C0462005E90A084300990843690543
:1022C000F20A114358E60000FF070000FFFFFF7FFE
:1022D00001491820ABBEFEE726000200FFB51F46ED
:1022E00089B0139812994005C00FC00705900020CF
:1022F000079005460446461E049002903C20491C67
:1023000012910690B9690A98884703901498401E64
:1023100014901498002841DD03982E2816D010211F
:1023200000F025FA002834DB0121049107990143CC
:102330001AD0069900290CDB069AC11700F007FA9B
:10234000054306980C43001F069006E0012002900A
:102350000EE0002801D001200543012007900298DB
:10236000002805D1361D03E00298002800D0361F52
:102370001298401C1290B9690A98884703901498E3
:10238000401E149004980028C3D00B99129808603E
:10239000BFE70398702808D0502806D0F9690A983A
:1023A00088470498002815D051E0002003900120B0
:1023B0000290049800280AD01298401C1290B96923
:1023C0000A9888471499491E0029149106DCF96976
:1023D0000A9888470120C0430DB0F0BD2B2804D0D7
:1023E0002D280DD10020C04302901298401C12905D
:1023F000B9690A9888471499491E00291491E6DDA5
:10240000411CE4D00A2100F0B2F90028DFDB039977
:102410000A225143081803901298401C1290B9697F
:102420000A9888470A2100F0A2F914990B9A491ECC
:102430001491129911601499002901DD0028E6DA3F
:10244000F9690A98884702990398484386191398AE
:102450002421084004902846204304D0A10F890776
:10246000090002D006E005989BE0A90FA4000C43E8
:10247000AD00B61EE10FC907080002D16D19644115
:10248000761E0498002803D00B2002905D4803E0DC
:10249000282002907D20C0438642039007DA811BEA
:1024A000029808184128029001DD41200290029A0A
:1024B00001200021521E00F04AF9024628400B4636
:1024C0002140084301D0012000E0002007900020B7
:1024D000521EC04343412A4023401A4301D00120E9
:1024E00000E0002007990690014352D000210846E1
:1024F0000020C0460321059A89050840002A05D01E
:1025000082008018C20F1018401008408015012862
:1025100002DD0020C04301E0012815D0401C38D066
:102520000798002835D0069800280DD1029A01207E
:10253000002100F00CF928402140084301D001207F
:1025400000E00020002824D0029A0120002100F0A1
:10255000FEF8034640198C4661412A1A8C410FD37C
:102560000298402807DD0498039E002801D0343EDD
:1025700002E0173E00E0761C01240025E40708E095
:102580005B1E62460024E4436241DD43D4430540C0
:102590000C4003980121081AB04206DA1A4905983E
:1025A00008430190002000900EE060006205010BDE
:1025B000E80A1043059A009068460A4313490A4303
:1025C0003146019203F0B6FD049800280AD0139812
:1025D000C00714D13868019A0099031D3B60006858
:1025E00006C00CE002A8694603F038FD1398C00746
:1025F00005D13868029A011D39600068026012989E
:10260000EAE6000002FCFFFF0000F07F0000F03F60
:10261000FFB51D4687B01198484A109C129E400590
:102620001399C00F761EC007024301920022009248
:10263000FF22D2051043202291434929059003D05F
:1026400017464E2928D04FE03DA002AA0BC801270B
:102650000BC2A9690898641C8847761E014607D4F6
:1026600002A8C05D002803D02022914381420AD0F5
:10267000E96908988847032F36D0082F34D0012005
:10268000C0430BB0F0BD7F1C032F01D0082FE0D159
:102690000999601C0860DCE7A9690898641C8847F0
:1026A000761E2DD4B84341282AD1A9690898641C04
:1026B0008847761E24D4B8434E2821D1A9690898AA
:1026C000641C884701990122D204114301910599A4
:1026D000D200114305910999761E0C6001D4282877
:1026E00006D0E969089888471198C00712D023E0FE
:1026F000A9690898641C8847761E01D4002803DA6B
:10270000E96908988847BAE72928F1D10998641C33
:102710000460E9E711982421084207D02868019A4B
:102720000099031D2B60006806C005E02868059924
:10273000021D2A60006801602046A2E70000F07FC9
:10274000494E46494E49545900000000704710B5A3
:10275000202A04DB0146203A9140002010BD914020
:1027600020239C1A0346E3401943904010BD3A28A9
:1027700000D23038202302469A43412A01D3104622
:102780003738884201D30020C0437047FEB500248B
:10279000174E0D460746012200941102304601945F
:1027A00001F059FA012000F081FE012100224902C6
:1027B000304601F050FA684604E03919497801556D
:1027C000641CE4B2AC42F8D30024074604E0385D50
:1027D00000F010F8641CE4B2AC42F8D301225102BC
:1027E000304601F038FA052000F060FE2046FEBDBC
:1027F00000040048F8B50024114EFF2705460137B4
:102800000720011B2846C840C207D20F802130464E
:1028100001F021FA00223946304601F01CFA01206D
:1028200000F044FE01223946304601F014FA01203E
:1028300000F03CFE641CE4B2082CE1D3F8BD0000BB
:102840000004004870B504460846FEF77BFC0B4BBD
:102850000CCBFEF753FBFEF701FB010186048D0C48
:10286000B60C012025432643400300F01BF83046F8
:1028700000F018F8284600F015F870BD1800002088
:1028800010B50C46064904F01DFE014601208003E8
:10289000FFF7D8FF00212246084600F013F810BDCC
:1028A00000007A441CB5064A06CA01920091020A49
:1028B00069464A70887002216846FFF767FF1CBDB1
:1028C000BC75000810B508431043FFF7EBFF10BDBF
:1028D000F8B50021172000F0B5FB0121022000F01F
:1028E000B1FB0926F60601220221304601F0B3F9B8
:1028F00000221021304601F0AEF9002201213046BD
:1029000001F0A9F901210D2000F014FC782001F05C
:10291000B9F801210E2000F00DFC782001F0B2F88A
:1029200001210B2000F006FC782001F0ABF801211A
:102930000C2000F0FFFB782001F0A4F80121092011
:1029400000F0F8FB782001F09DF80121132000F041
:10295000F1FB782001F096F80121122000F0EAFB4B
:10296000782001F08FF80121082000F0E3FB7820A7
:1029700001F088F80121172000F0DCFB4D4D01200B
:102980004D4C4E4F2860388800047CD5207859285B
:1029900006D046281DD0642836D0632849D063E08D
:1029A000607854287FD100220221304601F053F98B
:1029B00001221021304601F04EF90022012130465B
:1029C00001F049F90021172000F03CFB0121022011
:1029D00048E06078542866D10021172000F032FBCF
:1029E0000121022000F02EFB01220221304601F0DD
:1029F00032F900221021304601F02DF90022012188
:102A0000304601F028F92FE0607869284BD1002189
:102A1000172000F017FB0121022000F013FB00211A
:102A20000D2000F00FFB00210E2000F00BFB002119
:102A300013E06078682836D10121172000F002FBEE
:102A40000021022000F0FEFA00210D2000F0FAFA29
:102A500000210E2000F0F6FA01210F2000F0F2FA1A
:102A60000021102000F0EEFA207862281BD100200F
:102A7000286000F039FB124800F0CEFA0022012154
:102A8000C903104801E010E00DE001F0E4F8012175
:102A9000002289030B4801F0DEF8012100224903DE
:102AA000084801F0D8F8002038802868002800D0B5
:102AB00069E7F8BD400000209802002004000020D3
:102AC000E817000000040048F8B5FC4C0122D103CF
:102AD000204601F0C0F801229103204601F0BBF826
:102AE00001225103204601F0B6F800210F2000F02A
:102AF000A9FA01210E2000F0A5FA0021102000F013
:102B0000A1FA01210D2000F09DFA0121002000F022
:102B100099FA0021012000F095FA0121172000F018
:102B200091FA0021022000F08DFA0925ED0600221D
:102B30000221284601F08FF801221021284601F0D9
:102B40008AF800220121284601F085F801210B2096
:102B500000F0F0FA642000F095FF01210C2000F055
:102B6000E9FA642000F08EFF0121132000F0E2FA60
:102B7000782000F087FF0121092000F0DBFA6420B3
:102B800000F080FF0121102000F0D4FA642000F052
:102B900079FF01210D2000F0CDFA642000F072FFD2
:102BA00001210E2000F0C6FA642000F06BFF012125
:102BB000122000F0BFFA782000F064FF0121082005
:102BC00000F0B8FA0121172000F0B4FABC4E012041
:102BD000BC4CBD4F30603888000470D5207859282F
:102BE0000AD0462840D043286ED044287AD05428B2
:102BF00068D04A2867D03CE16078542871D1002120
:102C00000F2000F01FFA01210E2000F01BFA012115
:102C1000102000F017FA01210D2000F013FA002215
:102C20000221284601F017F801221021284601F060
:102C300012F800220121284601F00DF8012112208E
:102C400000F078FA782000F01DFF0121082000F044
:102C500071FA0121172000F06DFA0121172000F010
:102C6000F1F90021022056E060785428C6D10021F5
:102C70000F2000F0E7F901210E2000F0E3F9002118
:102C8000102000F0DFF901210D2000F0DBF9002217
:102C90000221284600F0DFFF01221021284600F023
:102CA000DAFF00220121284600F0D5FF012117207C
:102CB00000F0C8F90021022000F0C4F955E0F8E066
:102CC00002E00FE02AE059E06078482896D101211F
:102CD000172000F0B7F90021022000F0B3F900211D
:102CE0000CE0CCE06078492888D10021172000F062
:102CF000A9F90121022000F0A5F901210F2000F01F
:102D0000A1F901210E2000F09DF90121102000F011
:102D100099F901210D2000F095F9AAE060785A2870
:102D2000A4D1A0784B282FD00121172000F08AF9D8
:102D3000642000F0A7FE0021022000F083F90122A8
:102D40000221284600F087FF642000F09BFE00224D
:102D50001021284600F07FFF642000F093FE00223F
:102D60000121284600F077FF64E00121122000F0E5
:102D7000E1F9782000F086FE012173E060785428A4
:102D80007DD1A0784B282FD000210F2000F05AF9D8
:102D900001210E2000F056F90021102000F052F918
:102DA00001210D2000F04EF90121002000F04AF928
:102DB0000021012000F046F90121172000F042F91E
:102DC0000021022000F03EF900220221284600F0F6
:102DD00042FF01221021284600F03DFF0022012180
:102DE000284600F038FFC0E70121172000F02AF93B
:102DF000642000F047FE0021022000F023F9642047
:102E000000F040FE01220221284600F024FF642049
:102E100000F038FE00221021284600F01CFF64203C
:102E200000F030FE00220121284600F014FF64204B
:102E300000F028FE00210F2000F004F901210E20EF
:102E400000F000F90121102000F0FCF801210D2014
:102E500000F0F8F80021122000F06CF9782000F062
:102E600011FE0021082000F065F90121172000F073
:102E700061F9207862281AD10020306000E016E065
:102E800000F032F9114800F0C7F801210022C9030F
:102E90000A4800F0E0FE012100228903074800F003
:102EA000DAFE012100224903044800F0D4FE00208C
:102EB0003880306800280BD08DE600000004004800
:102EC000400000209802002004000020E8170000C5
:102ED000F8BD70B505460024280601D5012000E0A4
:102EE000002002F0C1FA022003F0C4F9012002F030
:102EF000ABFA022003F0BEF9002002F0A5FA072C7D
:102F000002D1012002F0B0FA6806050E042003F099
:102F1000B1F9641CE4B2082CDED370BD10B50120F9
:102F200002F092FA012002F09FFA022003F0A2F9C7
:102F3000002002F099FA022003F09CF9002002F030
:102F400083FA022003F096F910BD10B5002002F0BC
:102F50007BFA022003F08EF9002002F085FA0220AD
:102F600003F088F9012002F06FFA022003F082F9E1
:102F7000012002F079FA042003F07CF910BD000072
:102F800000B587B014216846FDF772FA0C48426913
:102F9000012149040A434261406908400590032029
:102FA000C0020090112001900020029003200390A5
:102FB00009206946C00600F077FD07B000BD00009B
:102FC0000010024010B5002002F03EFA022003F08B
:102FD00051F9012002F048FA022003F04BF90120D8
:102FE00002F032FA022003F045F9002002F02CFA38
:102FF00010BD70B50D460446FFF790FF2046FFF761
:1030000068FFFFF7DFFF2846FFF763FFFFF7DAFFF0
:10301000FFF79BFF70BD000010B5C1B2084C020A5B
:1030200021706270000CA0704420FFF7E2FF61780D
:103030004620FFF7DEFFA1786020FFF7DAFF10BD22
:1030400037000020C208D30010B5C01AC4B2012353
:103050000D480029815C02D0A340194301E0A34040
:1030600099438154002A06D0012A07D0022A09D1A7
:103070008178602004E00178442001E04178462016
:10308000FFF7B7FF10BD00003700002008B5009320
:1030900013460A460146044802F00AFB002203498F
:1030A000014802F035FA08BD60030020801A0600CE
:1030B00070B504460D460B4802F006FB2146094850
:1030C00002F0CEFA0121074802F0A6FA2946054887
:1030D00002F0C6FA0121034802F09EFA014802F00C
:1030E0000DFB70BD6003002010B5C1B2084C020A90
:1030F00021706270000CA0704420FFF7D9FF617846
:103100004620FFF7D5FFA1786020FFF7D1FF10BD63
:103110003100002010B5C1B2054C000A217060706A
:103120004420FFF7C5FF61784620FFF7C1FF10BDBF
:1031300031000020C208D30010B5C01AC4B2012368
:103140000D480029815C02D0A340194301E0A3404F
:1031500099438154002A06D0012A07D0022A09D1B6
:103160008178602004E00178442001E04178462025
:10317000FFF79EFF10BD00003100002010B586B0A3
:1031800014216846FDF774F9144842690121C90405
:103190000A4342614069124C0840059007204003F1
:1031A0000121009000200191039102906946204680
:1031B00000F07AFC0122D103204600F04CFD0121F1
:1031C00000228903204600F046FD01210022490328
:1031D000204600F040FD06B010BD00000010024087
:1031E00000080048F8B5184E054600240121224683
:1031F000C903304600F02FFD03F035F80127BF0367
:10320000280401D5012200E00022012149033046B3
:1032100000F021FD6804050C03F025F80122394671
:10322000304600F018FD03F01EF800223946304603
:1032300000F011FD641CE4B2102CE1D30122D10393
:10324000304600F008FDF8BD0008004810B5074AF8
:10325000074BFDF7A9FB0022064BFDF74FFEFDF7DC
:10326000FDFD80B2FFF7BEFF10BD000014AE47E1C8
:103270007A140640E0FFEF40F8B56B4C0122D10311
:10328000204600F0E8FC01229103204600F0E3FC18
:1032900001225103204600F0DEFC0A2000F0F2FB80
:1032A00001210F20FFF7CEFE01210E20FFF7CAFEFD
:1032B00000211020FFF7C6FE00210D20FFF7C2FEFF
:1032C00001210D20FFF736FF782000F0DBFB012104
:1032D0000E20FFF72FFF782000F0D4FB01210B20F8
:1032E000FFF728FF782000F0CDFB01210C20FFF72D
:1032F00021FF782000F0C6FB01211320FFF71AFF01
:10330000782000F0BFFB01210920FFF713FF782090
:1033100000F0B8FB01211120FFF70CFF782000F02E
:10332000B1FB424D0120424E424F286038880104D3
:1033300075D58004800CE8603078462802D0622879
:1033400051D06AE002F008FF7F200021C005FFF79E
:1033500097FA0020286200E0401C315C5029FBD124
:10336000286201202C46E86116E0216A081A401EF6
:10337000FDF7B9FD02460B4600202F4903F054F932
:10338000FDF736FDE169725C303A504322698018DE
:10339000491CE16120610846315C5029E5D1206972
:1033A000FDF7A1FD0022254BFDF7FEFAE162A062C8
:1033B000E268B218203AD27F312A04D0322A06D0ED
:1033C000332A08D00CE0FDF705F9002106E0FDF7EF
:1033D00001F9022102E0FDF7FDF82821FFF750FA7C
:1033E0000020206119E000202860FFF77DFE1448CE
:1033F000FFF712FE0C4C01210022C903204600F009
:103400002AFC012100228903204600F024FC01212E
:1034100000224903204600F01EFC00203880286866
:10342000002883D1F8BD00000004004840000020BF
:1034300098020020040000200000244000408F403B
:10344000E8170000002804D00821491EFDD1401EC5
:10345000FAD1704710B50446042000F073FF01480C
:10346000048010BD340000207D2100B5C900484310
:1034700000F01CF800BD000070B50B4C002265691F
:10348000A16907280FD3C01FA3698B42FCD08B42D0
:1034900002D2C91A8A1803E0EE1A71188A18521C4F
:1034A00019468242F0D370BD00E000E070B50A4CCE
:1034B000002365690949A26909884843A1699142C5
:1034C000FCD0914201D2521A01E06E1AB218D31800
:1034D0000A468342F2D370BD00E000E034000020D1
:1034E00072B6FEE7F8B50926F6060022022130463C
:1034F00000F0B1FB00221021304600F0ACFB0122AD
:103500001146304600F0A7FB00210D20FFF79AFD81
:1035100001210E20FFF796FD01210F20FFF792FDFC
:1035200000211020FFF78EFD01210D20FFF702FE84
:10353000782000F0A7FA01210E20FFF7FBFD78208C
:1035400000F0A0FA01210B20FFF7F4FD782000F035
:1035500099FA01210C20FFF7EDFD782000F092FA96
:1035600001210920FFF7E6FD782000F08BFA012108
:103570001320FFF7DFFD782000F084FA01210320FB
:10358000FFF7D8FD01211520FFF7D4FD304D0120B4
:10359000304C314F28603888000454D520785928A1
:1035A00002D046280FD030E06078542849D101225B
:1035B0000221304600F04FFB01221021304600F07E
:1035C0004AFB00220DE0607854283AD10022022103
:1035D000304600F040FB00221021304600F03BFB5B
:1035E00001220121304600F036FB00210D20FFF7BB
:1035F00029FD01210E20FFF725FD01210F20FFF7F6
:1036000021FD00211020FFF71DFD2078622818D130
:1036100000202860FFF768FD1048FFF7FDFC01213E
:103620000022C9030E4800F016FB01210022890385
:103630000B4800F010FB012100224903084800F06C
:103640000AFB0020388028680028A4D1F8BD0000BB
:10365000400000209802002004000020E81700002D
:1036600000040048F8B5E04C0122D103204600F0E8
:10367000F2FA01229103204600F0EDFA01225103F3
:10368000204600F0E8FA01210F20FFF7DBFC0121C2
:103690000E20FFF7D7FC00211020FFF7D3FC0121FB
:1036A0000D20FFF7CFFC01211520FFF7CBFC0021F7
:1036B0001620FFF7C7FC0925ED0601220221284646
:1036C00000F0C9FA01221021284600F0C4FA0022B5
:1036D0000121284600F0BFFA01210B20FFF72AFD47
:1036E000782000F0CFF901210C20FFF723FD78208E
:1036F00000F0C8F901210E20FFF71CFD782000F032
:10370000C1F901210D20FFF715FD782000F0BAF96D
:1037100001211320FFF70EFD782000F0B3F90121FD
:103720000920FFF707FD782000F0ACF901211520F2
:10373000FFF700FD01210320FFF7FCFCAB4E012049
:10374000AB4CAC4F3060388800046FD520785928D6
:1037500006D046282FD054283AD04A2867D0CCE04B
:10376000607854287ED100210F20FFF76BFC0021E8
:103770000E20FFF767FC01211020FFF763FC0121F9
:103780000D20FFF75FFC01220221284600F063FABA
:1037900001221021284600F05EFA0022012128466D
:1037A00000F059FA01211520FFF74CFC00211620EA
:1037B000FFF748FC69E060785428D3D100210F203E
:1037C000FFF740FC00210E20FFF73CFC01216EE0DA
:1037D00060785A28C6D1A0784B2829D0002202212F
:1037E000284600F038FA00221021284600F033FA6B
:1037F00001221146284600F02EFA00211520FFF77D
:1038000021FC01211620FFF71DFC00210F20FFF7EE
:1038100019FC00210E20FFF715FC01211020FFF7F5
:1038200011FC01210D20FFF70DFC5EE0D6E02FE03A
:1038300001210F20FFF706FC01210E20FFF702FCFB
:1038400000211020FFF7FEFB01210D20FFF7FAFBFE
:1038500001211520FFF7F6FB00211620FFF7F2FBF0
:10386000012200E0B8E00221284600F0F4F901222C
:103870001021284600F0EFF900220121284600F02F
:10388000EAF901211520FFF755FC0121032032E060
:103890006078542891D1A0784B2832D001210F2094
:1038A000FFF7D0FB01210E20FFF7CCFB00211020F9
:1038B000FFF7C8FB01210D20FFF7C4FB01211520F4
:1038C000FFF7C0FB00211620FFF7BCFB01220221FD
:1038D000284600F0C0F901221021284600F0BBF96B
:1038E00000220121284600F0B6F901210320FFF74C
:1038F00021FC01211520FFF71DFC2078622852D001
:103900006AE000220221284600F0A5F900221021D9
:10391000284600F0A0F901221146284600F09BF944
:1039200000211520FFF78EFB01211620FFF78AFBEF
:1039300000210F20FFF786FB00210E20FFF782FBFE
:1039400001211020FFF77EFB01210D20FFF77AFBFC
:1039500001210E20FFF7EEFB782000F093F8012103
:103960000D20FFF7E7FB782000F08CF801210B20F9
:10397000FFF7E0FB782000F085F801210C20FFF72D
:10398000D9FB782000F07EF801211320FFF7D2FB4D
:10399000782000F077F801210920FFF7CBFB782091
:1039A00000F070F8A1E700203060FFF79DFB12489F
:1039B000FFF732FB01210022C9030B4800F04BF94D
:1039C000012100228903084800F045F90121002265
:1039D0004903054800F03FF900203880306800288E
:1039E00000D0B0E6F8BD0000000400484000002010
:1039F0009802002004000020E817000030B50146BE
:103A000020314B780022022B04D0042383630A70F8
:103A1000012030BD03681C680E25AC431C600368A0
:103A20001C68640864001C600123056C1C46C06BA4
:103A3000AC4044604B700A70002030BD70B500246B
:103A4000014620314A78022A03D0042181630124EF
:103A500016E0026813680E25AB4313600268136812
:103A60005B085B0013600122056C1346AB40C56B1D
:103A70006B604A7000220A70416B002900D08847B1
:103A8000204670BD70B5044600F0ECF80546601C99
:103A900002D004480078241800F0E4F8401BA0424B
:103AA000FAD370BD08000020F8B5002303240125D7
:103AB000BAE02E469E40B44632407CD00E79B6071E
:103AC000B60F012E01D0022E17D186682746B646C2
:103AD0005E00B74000967646BE43B646CF68009E6D
:103AE000B74076463743876046686746BE430F79DE
:103AF000FF06FF0F9F40374347600E79F643B60736
:103B00000ED0C6682746B4465E00B646B740664645
:103B1000BE43B4468F687646B74066463743C760B3
:103B20000E79B607B60F022E14D1DE08B60036188D
:103B30000096366A5F07B446FE0E0F27B646B740BA
:103B40006646BE43B4460F697646B740664637437D
:103B5000009E376206682746B4465E00B646B74008
:103B60006646BE430F79B446BF07BF0F7646B740DF
:103B70006646374307604E68B603B60F53D02D4FE5
:103B8000BE692E43BE61BE699F08F607F60F2A4E36
:103B9000BF00BE190096B6680F27B4469E07360FC1
:103BA000B646B7406646BE430927FF06B446B8424C
:103BB00002D1002710E036E0204FB84201D10127A2
:103BC0000AE01F4FB84201D1022705E01D4FB8425D
:103BD00001D1032700E005277646B7406646374304
:103BE000009EB760184E36684F689643FF0300D5B5
:103BF0001643154F3E607E684F689643BF0300D55D
:103C00001643114F7E60BE684F689643FF0200D591
:103C100016430D4FBE60FE684F689643BF0200D545
:103C20001643094AD6605B1C0A681646DE4000D07F
:103C30003FE7F8BD001002400000014000040048CA
:103C400000080048000C00480004014000690840DA
:103C500000D001207047002A01D081617047816245
:103C6000704700000148806870470000080000208D
:103C70000248816802788918816070470800002036
:103C800010B506480168102211430160032000F0BE
:103C900007F800F027F8002010BD000000200240C7
:103CA00070B504460D4D7D202978C000FCF7E2FB7D
:103CB00001460B480068FCF7DDFB00F04FFB0028D5
:103CC00009D1042C07D200222146401E00F02AF818
:103CD00000206C6070BD012070BD00000800002055
:103CE0001400002008B50848816901221143816150
:103CF000816911400091C26901040A43C261C0692F
:103D00000840009008BD000000100240002805DBBC
:103D1000C106C90E012088400149086070470000B3
:103D200000E100E010B502F0F7F810BDF8B5054667
:103D30000068354CC00352D5E0690026C00007D4A6
:103D4000E16920040143E161E1690140012600913C
:103D50002E480168C90510D401688215114301601D
:103D6000FFF780FF074604E0FFF77CFFC01B6428D5
:103D700024D826480068C005F6D5206A03273F02EC
:103D8000384020D06968394081421CD0206A226ABC
:103D9000B843012109040A432262226A8A4322624B
:103DA0002062C0070FD0FFF75DFF009008E0FFF72B
:103DB00059FF0099411A1648814201D90320F8BDE4
:103DC000206A8007F3D5206A6968B84308432062F7
:103DD000002E04D0E169012000078143E1612878C9
:103DE000C00705D0206BA9688008800008432063C5
:103DF0002878800605D5206B10218843E9680843A0
:103E000020630020F8BD0000001002400070004058
:103E100088130000F8B50F46060059D03A4D2868BF
:103E2000C007C00FB84209D2286840084000384394
:103E300028602868C007C00FB84249D13068334CA9
:103E400081070CD5400704D56068072109020843A3
:103E500060606068F0218843B16808436060307832
:103E6000C00726D0706801280ED0216802280ED025
:103E7000890700292CDA616889088900014361609B
:103E8000FFF7F0FE00900DE021688903F1E789015A
:103E9000EFE7FFF7E7FE0099411A1D48814201D97B
:103EA0000320F8BD60680C210840716889008842D1
:103EB000EFD12868C007C00FB8420BD92868400866
:103EC0004000384328602868C007C00FB84201D0BE
:103ED0000120F8BD3078400706D560680721090247
:103EE0008843F1680843606000F028F86168094A77
:103EF0000906090F515CC840074908600320FFF715
:103F0000CFFE0020F8BD000000200240001002405B
:103F100088130000A4750008140000200448054917
:103F200000684968044A4905490F515CC840704718
:103F30001400002000100240B475000810B514A34E
:103F40000FCB88B06C460FC415A30FCB0FC4184A13
:103F500051680C200B4603401648042B16D0082B42
:103F600014D18B021B0F6C46E45CD26A04AB1207BF
:103F7000120F9A5CC90305D500231946FCF736F9E0
:103F8000214601E020460C4901F08AFF08B010BD2F
:103F900002030405060708090A0B0C0D0E0F10108A
:103FA0000102030405060708090A0B0C0D0E0F1089
:103FB0000010024000127A0000093D00FEB5040026
:103FC00070D02078DC4DC0074AD068680007800FA9
:103FD000012807D068680007800F022809D16868A7
:103FE000C00306D5286880033AD560680028E7D06A
:103FF00036E06168012914D001208004002901D035
:10400000052914D02A68012109048A432A602968F5
:10401000814329606068002816D0FFF723FE06461A
:104020000EE028680121090408432860F2E72968A6
:1040300001432960F5E7FFF715FE801B64286ED861
:1040400028688003F7D50BE0FFF70CFE064604E076
:10405000FFF708FE801B6428F1D828688003F7D496
:1040600020780126800700283CDA68680007800F66
:1040700007D068680007800F022809D16868C0036C
:1040800006D42868800716D5E06801280AD112E016
:10409000E0680028286816D030432860FFF7E2FD6A
:1040A000074605E043E1FFF7DDFDC01B0228C6D847
:1040B00028688007F7D52868F82188432169C90056
:1040C000084328600EE0400840002860FFF7CAFD62
:1040D000074604E0FFF7C6FDC01B0228AFD82868DA
:1040E0008007F7D42078000722D5E0690028686AA5
:1040F0000ED030436862FFF7B5FD074604E0FFF7D6
:10410000B1FDC01B02289AD8686A8007F7D50FE076
:10411000400840006862FFF7A5FD074605E09DE006
:10412000FFF7A0FDC01B022889D8686A8007F7D472
:10413000207804274007002860DA00200190E86911
:10414000C00008D4E969B8060143E961E9690140A2
:1041500001200091019079480168C90511D40168D6
:10416000821511430160FFF77DFD009005E0FFF728
:1041700079FD0099401A642870D870480068C0051D
:10418000F5D5A06801280AD0002801D0052810D054
:10419000286A400840002862286AB84301E0286A7B
:1041A00030432862A068002812D0FFF75BFD009022
:1041B0000AE0286A38432862F1E7FFF753FD0099C7
:1041C000411A5F48814249D8286A8007F5D50DE039
:1041D000FFF748FD009006E0FFF744FD0099411A03
:1041E000574881423AD8286A8007F5D401980028B8
:1041F00004D0E969012000078143E9612078C00605
:1042000035D5606901280CD0401D686B23D0384338
:104210006863686B400840006863FFF723FD06464B
:1042200022E0686B38436863686B30436863FFF76C
:1042300019FD064604E0FFF715FD801B02285BD838
:10424000686B8007F7D5686BF8218843A169C900BE
:10425000084368630BE0B8436863F4E74CE0FFF79A
:1042600001FD801B022847D8686B8007F7D4206ABD
:1042700000285ED069680907890F022942D001260B
:1042800036060228286805D0B0432860FFF7EAFC0C
:10429000044633E0B0432860FFF7E4FC074604E03F
:1042A000FFF7E0FCC01B022826D828688001F7D45D
:1042B000E86AE16A000900010843E862616AA06AED
:1042C000084369683D2212049143084368602868E6
:1042D00030432860FFF7C6FC044604E0FFF7C2FC49
:1042E000001B022808D828688001F7D521E0FFF7D5
:1042F000B9FC001B022801D90320FEBD28688001FB
:10430000F5D416E00128F8D06868E96A01221204A1
:10431000636A02409A420AD10907E26A090F914290
:1043200005D10F2189040840A16A884201D00120EB
:10433000FEBD0020FEBD00000010024000700040E5
:1043400088130000042204490428086902D090431D
:10435000086170471043FBE700E000E0094910B531
:10436000401E884201D9012010BD074C6061032125
:10437000081F01F0D1FD0020A0610720206100206E
:1043800010BD0000FFFFFF0000E000E07047704735
:10439000F0B502462032137F012B1ED00125157780
:1043A0000223537706687468B3687027BC430F68AC
:1043B0002743776000680A4CA04205D0094CA04210
:1043C00002D0094CA04204D180244968A343194378
:1043D0008160557700201077F0BD0220F0BD00000D
:1043E000002C0140000400400040014070B5040072
:1043F00005D025462035687F002802D006E0012040
:1044000070BD00202877204600F014F8022068775D
:10441000211D206801F0D2F901204034A071A87755
:10442000E87720706070A070E0702071607168772C
:10443000002070BD08B50068094988420FD10948BD
:10444000C26902210A43C261C0690022084000908B
:1044500011461020FFF766FC1020FFF757FC08BD3F
:104460000004004000100240F8B50546044620351F
:10447000287F0026012817D001202877022068779E
:10448000226890687727FF23B8431B029843906007
:104490000868502838D00EDC20284FD006DC0028D1
:1044A0004CD010281ED149E00220F8BD302845D05C
:1044B000402817D13AE060282ED0702819D0012268
:1044C0001203801A0FD090420CD1CB684A688968D9
:1044D000206801F0B7F92068816801229203114336
:1044E000816000E0012601206877002028773046AF
:1044F000F8BDCB684A688968206801F0A3F9216893
:10450000886838438860EEE7CA684968206801F027
:10451000ACF95021206806E0CA684968206801F0BB
:10452000B5F96021206801F098F9DCE7CA684968AC
:10453000206801F09AF940212068F4E722680146DA
:104540001046F0E7704770B5044600680169002521
:10455000C9438907002915DBC168C943890711D4FC
:10456000E91E0161012020772068806980072046CC
:1045700002D0FFF7E7FF04E000F096F8204600F0D5
:1045800094F8257720680169C943490717D4C168A1
:10459000C943490713D40421C9430161022020778C
:1045A000206880698005800F204602D0FFF7CAFF8F
:1045B00004E000F079F8204600F077F825772068CD
:1045C0000169C943090716D4C168C943090712D450
:1045D0000821C9430161042020772068C069800751
:1045E000204602D0FFF7AEFF04E000F05DF8204661
:1045F00000F05BF8257720680169C943C90617D424
:10460000C168C943C90613D41021C94301610820F8
:1046100020772068C0698005800F204602D0FFF710
:1046200091FF04E000F040F8204600F03EF82577C6
:1046300020680169C943C90708D1C168C943C907CE
:1046400004D1891E0161204600F030F8206801691C
:10465000C943090609D4C168C943090605D48021A4
:10466000C94301612046FFF791FE20680169C943F3
:10467000490609D4C168C943490605D44021C94344
:104680000161204600F013F820680169C9438906DA
:1046900009D4C168C943890605D42021C9430161F1
:1046A0002046FFF774FE70BD704770477047704733
:1046B000704770470146806FC96F0843704700001C
:1046C000F8B502680446D069116896689C4B0546A7
:1046D0001D402023002D75D0F7079A4DFF0FBC46D3
:1046E0000D402F436DD02546C7078035002F06D0DB
:1046F000CF0504D5012717622A683A432A6082074A
:1047000008D5F20706D0276802223A622A680427F1
:104710003A432A60420708D5F20706D026680422E9
:1047200032622A68022632432A6002070AD50A4604
:104730001A406646324305D02668082232622E6847
:1047400016432E60020508D54A0106D501222668C7
:10475000D20232622A681A432A602A68002A39D0B3
:10476000800606D5880604D5616E002901D0204652
:104770008847286821688968490602D428210842A8
:104780002DD0204601F036F921688868400622D5F0
:10479000EFF31080012282F310888B68402293434C
:1047A0008B6080F31088206F002814D06649416325
:1047B000206FFFF743F900280CD0206F416B08E011
:1047C00000E012E0850610D58D060ED5616E9DE0E5
:1047D00020468847F8BD2046FFF76BFFF8BD20460E
:1047E000FFF767FF00202860F8BD256E012D7DD101
:1047F000C5067BD5CD0679D510261662226890684D
:10480000254640064035002845DA216F0868406893
:104810000004000CE8D02F8B8742E5D968838869B3
:10482000202833D0EFF31080012181F31088116824
:104830003701B943116080F31088EFF31080012134
:1048400081F3108821688A68520852008A6080F3D8
:104850001088EFF31080012181F3108821688A68A5
:104860004027BA438A6080F31088E36700202066FF
:10487000EFF31080012181F3108821680A68B243A8
:104880000A6080F31088206FFFF7B8F8288B698BD7
:10489000401A81B231E0288B698B401A81B2688B53
:1048A0000028A1D000299FD0EFF31080012585F3C7
:1048B00010881568FF272137BD43156080F31088E5
:1048C000EFF31080012282F31088226895686D084A
:1048D0006D00956080F31088E367002020666066B5
:1048E000EFF31080012282F3108800E009E02268D3
:1048F0001368B343136080F310882046FFF7D8FE97
:10490000F8BD050606D50D0604D5A16E002900D018
:104910005EE7F8BD4006FCD54806FAD52046EFF321
:104920001081012484F3108814684025AC4314607E
:1049300081F3108883670021816600F07AF9F8BD61
:104940000F08000020010004E159000810B5040020
:1049500003D0A06F002802D007E0012010BD002185
:1049600074200155204600F027F82420A067206815
:104970000168490849000160204601F013F9012847
:10498000ECD0606A002802D0204600F092FF206838
:1049900041680122D2029143416020688168082267
:1049A0009143816020680168012211430160204623
:1049B00000F0E4FF10BD0000F0B587B004461421FC
:1049C0006846FBF755FD264F012126680022254841
:1049D0004904022303240125BE421DD18769CE105C
:1049E0003743876187693740059746690E434661BB
:1049F00040690193084005906002009002AE34C601
:104A000009206946C006FFF74FF8002211461B2017
:104A1000FFF788F91B201EE0134FBE421DD1C66967
:104A20000E43C661C6690E40059646690E4346614F
:104A300040690193084005900C20009002AE34C6F6
:104A400009206946C006FFF72FF8002211461C20F6
:104A5000FFF768F91C20FFF759F907B0F0BD000017
:104A600000380140001002400044004070B5C36FA0
:104A7000202B2BD100290BD0002A09D001248368D8
:104A80002403A34206D10369002B03D1CB0701D035
:104A9000012070BD034660331C7D012C16D001241B
:104AA0001C7500230366046863681B020BD5EFF3D3
:104AB0001083012585F3108825680126B606354345
:104AC000256083F3108801F007F970BD022070BDE6
:104AD00070B5012400681A49E40300226510884279
:104AE00013D1184801880B0406D4174B4E041B78C9
:104AF00003D50A2B20D0028070BD0D2B1ED08C0454
:104B0000A40C124D11E0018070BD11498842FBD107
:104B1000104801880B04F7D40F4B4E041B78E8D4DF
:104B20000D2B0BD08C040D4DA40C491C89B22B55B8
:104B30000180C729DFD870BD2143E4E72943E2E7BC
:104B4000003801400200002000000020D0010020B9
:104B500000440040040000200100002098020020D2
:104B6000FFB50446806F83B017460D4620285ED1FE
:104B7000002D0AD0002F08D0A168C001814207D1C2
:104B80002069002804D1E80702D0012007B0F0BD59
:104B9000204660300090007D012848D00098012117
:104BA00001750020802108512120A067FFF75AF8E5
:104BB000264640360190378277820120A1680003A3
:104BC000814202D12069002805D02F460025009996
:104BD0000020087511E00027F9E700228021204617
:104BE00001F0C8F8002815D1002F15D021683878B9
:104BF00008857F1C708A401E7082708A019B002885
:104C000006980090E9D100224021204601F0B2F838
:104C1000002808D00320B9E728882168C005C00D06
:104C20000885AD1CE6E72020A0670020AEE7022043
:104C3000ACE77047FEE70000F0B587B01421684686
:104C4000FBF716FC24484269012189050A434261A9
:104C500042690A400592426949110A434261426928
:104C60000A400592426949000A43426140690022B4
:104C70000840059009201321C006FEF7ECFF072627
:104C8000164F7603012231463846FEF7E4FF012233
:104C900009201102C006FEF7DEFFFF2014300124B8
:104CA0000025694631C109206946C0060394FEF714
:104CB000FBFE019469463846009602950394FEF780
:104CC000F3FEE00300900920694601950294C006B6
:104CD000FEF7EAFE07B0F0BD0010024000040048F5
:104CE00010B586B00024009415491648019402942A
:104CF00003940494059412C00460134984604160D5
:104D0000802101610838FFF771FB002801D0FEF710
:104D1000E7FB01200003009069460A48FFF7A4FB67
:104D2000002801D0FEF7DCFB049404A90548059493
:104D3000FFF72EFB002801D0FEF7D2FB06B010BD16
:104D40000004004080000020FFFF000010B50F4865
:104D50000D490160E1214902416000218160C1608B
:104D600001618161C1610C22016242614162FFF710
:104D7000EDFD002801D0FEF7B3FB012204490348F2
:104D8000FFF774FE10BD000000380140C80000208D
:104D90000000002010B50F480D490160E1214902D3
:104DA000416000218160C16001618161C1610C22AB
:104DB000016242614162FFF7C9FD002801D0FEF7A0
:104DC0008FFB012204490348FFF750FE10BD00008D
:104DD000004400404C01002001000020FEE70000DC
:104DE000F8B5614E0122D1033046FEF734FF0122AF
:104DF00091033046FEF72FFF012251033046FEF7A4
:104E00002AFF00210F20FEF71DF900210E20FEF7DA
:104E100019F900211020FEF715F900210D20FEF7E9
:104E200011F901210D20FEF785F97820FEF72AFE01
:104E300001210E20FEF77EF97820FEF723FE0121E6
:104E40000C20FEF777F97820FEF71CFE01210B20DD
:104E5000FEF770F97820FEF715FE01211320FEF70A
:104E600069F97820FEF70EFE01210920FEF762F9AC
:104E70007820FEF707FE01211620FEF75BF9782067
:104E8000FEF700FE01210020FEF754F9012137480A
:104E9000374C384D00270160288800045ED5207803
:104EA000532812D16078572857D1A0784138030091
:104EB00001F00EF8060411192129310B2079302850
:104EC00007D000210620FEF7BDF8207862282AD0FE
:104ED00043E00121F6E72079302802D000210520A7
:104EE000F1E70121FBE72079302802D000210720DB
:104EF000E9E70121FBE72079302802D000210820D2
:104F0000E1E70121FBE72079302802D000210920C8
:104F1000D9E70121FBE72079302802D000210A20BF
:104F2000D1E70121FBE7114807600020FEF7DCF81C
:104F30001148FEF771F801210022C9033046FEF73F
:104F40008AFE0121002289033046FEF784FE0121FA
:104F5000002249033046FEF77EFE2F80034800689A
:104F6000002899D1F8BD000000040048400000204E
:104F70009802002004000020E8170000F8B5012284
:104F8000D103CB48FEF767FE0A20FEF77BFD002128
:104F90000C20FEF757F801210420FEF753F80021FA
:104FA0000B20FEF74FF801210E20FEF7C3F8782002
:104FB000FEF768FD01210D20FEF7BCF87820FEF712
:104FC00061FD00210B20FEF7B5F801210C20FEF752
:104FD000B1F83220FEF756FD00211320FEF7AAF8A3
:104FE0007820FEF74FFD00210920FEF7A3F8782076
:104FF000FEF748FD01211020FEF79CF87820FEF70F
:1050000041FD01210846FEF795F87820FEF73AFDAC
:1050100001F0DAF8A74C01202060A74A11880804A3
:105020007DD5002020636063A06060618804800CEF
:10503000E060A2480078502872D100222262114616
:105040009E48636803E02E2D00D10123491C455C76
:105050004D2DF8D163602162012B02D0002B72D05C
:1050600096E0226200E0521C815C2E29FBD1226274
:10507000521EE2611EE09148C05D3038FBF733FFFD
:105080000546206A0E46C01B401EFBF72CFF024659
:105090000B4600208A4901F0C7FA2A463346FBF73F
:1050A0002DFF636B226BFBF74FFC61632063E069AC
:1050B000401EE061E769002FDDDC804E256A701933
:1050C0004178312914D18178322911D1C0784D2805
:1050D0000ED100227B4B616B206BFBF70FFF002290
:1050E000794BFBF731FCFBF783FE606201206061C6
:1050F0006D1CE56120E07148C05D3038FBF7F3FEC0
:105100000546206A0E46C01BFBF7EDFE02460B4625
:1051100000206B4901F088FA2A46334601E0BFE0DF
:1051200095E0FBF7EBFE636B226BFBF70DFC616315
:105130002063E069401CE061E068E769401E874247
:10514000D9DB25E0FFE70121E1611CE03038FBF706
:10515000CAFE0546E0680E46C01B801EFBF7C3FE74
:1051600002460B460020564901F05EFA2A463346B5
:10517000FBF7C4FE636B226BFBF7E6FB6163206306
:10518000E069401CE0614D48E769C05D4D28DDD114
:105190006069002808D100224A4B616B206BFBF745
:1051A000ADFEFBF725FE6062484D606A2946FBF7BD
:1051B0006BF900291DD046A1022002F01DF82946F6
:1051C000606AFBF761F9294648430246A06148A19D
:1051D0004848FBF78DF84749022002F00DF846A138
:1051E000022002F009F845A1022002F005F8012092
:1051F000A0602946606AFBF747F981B2404800F099
:1052000009F901250926ED03F60629463046FEF781
:105210001DFD00280AD0A068002807D139A102206E
:1052200001F0EAFF35A1022001F0E6FF29463046F1
:10523000FEF70CFD00280AD1A068002807D137A18D
:10524000022001F0D9FF2DA1022001F0D5FF1B485B
:105250000078622821D101210B20FDF7F3FE002107
:105260000420FDF7EFFE00202060FDF73DFF3148F0
:10527000FDF7D2FE0E4D01210022C9032846FEF79C
:10528000EAFC0121002289032846FEF7E4FC012103
:10529000002249032846FEF7DEFC0749002008806B
:1052A000002060602068002800D0B6E6F8BD00004D
:1052B0000004004840000020040000209802002064
:1052C0000000244080842E41004CFD40204E000010
:1052D00074332E7478743D22BEABB6C8B9FDB8DF06
:1052E000A3ACCAB5BCCAC6B5C2CAA3BA0000000006
:1052F000256400003C040020485A2200FFFFFF0004
:10530000E204000074332E7478743D22CBF8B6A802
:10531000BCECB2E2A3BAD2D1CBF8220074332E7423
:1053200078743D22CBF8B6A8BCECB2E2A3BACEB4F6
:10533000CBF82200E8170000F8B50122D1032F486E
:10534000FEF789FC01210C20FDF77CFE00210F20D7
:10535000FDF778FE00210E20FDF774FE00211020DD
:10536000FDF770FE01210D20FDF76CFE00210320EA
:10537000FDF768FE01210D20FDF7DCFE6420FEF73D
:1053800081FB01210E20FDF7D5FE7820FEF77AFB88
:1053900001211020FDF7CEFE7820FEF773FB0121DE
:1053A0000420FDF7C7FE0120154C164F164D0026B0
:1053B0002060288800041CD53878622818D1002085
:1053C0002660FDF791FE1148FDF726FE012100221F
:1053D000C9030A48FEF73FFC012100228903074860
:1053E000FEF739FC0121002249030448FEF733FC93
:1053F0002E8020680028DCD1F8BD000000040048A1
:10540000400000209802002004000020E81700005F
:105410007047000070B585000C022846641C00F03F
:1054200035F8204600F032F8064E306800F02EF8CD
:10543000706800F02BF8204600F028F8284600F0AD
:1054400025F870BD200000200121092310B5C902F4
:10545000DB06012806D0002803D100221846FEF7FB
:10546000FAFB10BD0122F9E70121092310B5090358
:10547000DB06012806D0002803D100221846FEF7DB
:10548000EAFB10BD0122F9E77047000070B51F4D1F
:105490000646002220212846FEF7DDFB00220821D7
:1054A0002846FEF7D8FB0024300201D5012200E097
:1054B000002210212846FEF7CEFB76000122202193
:1054C0002846FEF7C8FB6420FDF7BCFF0022202120
:1054D0002846FEF7C0FB6420FDF7B4FF641CE4B26D
:1054E000182CE1D3002210212846FEF7B4FB00223D
:1054F00008212846FEF7AFFB6420FDF7A3FF012239
:1055000008212846FEF7A7FB70BD000000040048F4
:1055100070B515460E46044609210268C90638488A
:1055200086B08A4202D062688A4207D1426901216C
:1055300049040A43426142690A400592314922689E
:105540008A4202D062688A4207D1426901218904F5
:105550000A43426142690A4005922B4922688A4205
:1055600002D062688A4207D142690121C9040A4314
:10557000426142690A400592244922688A4202D067
:1055800062688A4207D14269012109050A434261E2
:1055900042690A4005921E4922688A4202D0626826
:1055A0008A4207D14269012189050A434261406963
:1055B000084005902168608988616168A0898861D8
:1055C0006089009011200190012002900320039037
:1055D00069462068FEF768FAA0890090694660680D
:1055E000FEF762FA31460B48FAF744FFC003000C9D
:1055F000E0814008401C2082A57406B070BD000008
:10560000001002400004004800080048000C004858
:1056100000140048006CDC0270B504460D46408959
:10562000216800048861208AFDF726FFA089002DEB
:1056300001D0002100E01021884061688861208A43
:10564000FDF71AFF216860898861E089FDF714FF82
:105650006089216800048861208AFDF70DFF70BD14
:1056600070B504460E46408921680004886107250C
:105670003146A089E940C90701D0002100E010218E
:10568000884061688861208AFDF7F6FE216860899C
:105690008861E089FDF7F0FE608921680004886177
:1056A000208AFDF7E9FE6D1E6DB2002DE0DA70BDB7
:1056B00010B5029C0AC001210B4602709340447051
:1056C0004380A140818010BD10B504462168408907
:1056D00088616168A0898861E089FDF7CDFEA089B5
:1056E000616800048861E089FDF7C6FE6089216871
:1056F00000048861E089FDF7BFFE10BD10B50446C7
:105700004089216800048861A0896168000488617B
:10571000208AFDF7B1FE216860898861E089FDF784
:10572000ABFE6168A0898861E0894000FDF7A4FEB6
:1057300010BD10B5FEF79CFA10BD70B594B03021C5
:105740006846FAF795FE002401250E942804139468
:105750000F9409900D941094009500010C941294EC
:10576000022601950A90119408960B946846FEF75C
:1057700025FC002801D072B6FEE707200C900E949D
:1057800001210D960F940CA8FEF744FB002801D0D0
:1057900072B6FEE710A810951294FEF7C7FA00281B
:1057A00001D072B6FEE714B070BD704710B5024864
:1057B000FEF7C9FE10BD000080000020F0B50268B1
:1057C0001A4B1B4C984201D0A04203D17025AA432A
:1057D0004D682A43174D184E184F98420AD0A042E0
:1057E00008D0174CA04205D0A84203D0B04201D047
:1057F000B84205D11446032212029443CA682243D8
:105800008024A2434C69224302608A68C2620A680B
:105810008262984205D0A84203D0B04201D0B8427B
:1058200001D10969016301214161F0BD002C0140F2
:105830000004004000400140004401400048014095
:105840000020004030B58468FF252D021B02134361
:10585000AC430B432343836030BD826870239A437B
:105860000A4307210A438260704730B5036A046A1D
:105870006408640004628469F025AC431201224389
:105880000A24A3430B438261036230BD30B5036A2F
:105890001024A34303628469036A0F252D031203B6
:1058A000AC432243A024A34309011943826101624E
:1058B00030BD10B5818CC90707D001684A68012343
:1058C0005B049A43836A1A434A60818C890707D52F
:1058D00001684A6801231B049A43C36A1A434A6059
:1058E000818C490707D501684A6801239B049A43C4
:1058F000036B1A434A60818C090707D501684A681F
:105900000123DB039A43436B1A434A60818CC90627
:1059100007D50268916801231B039943836B1943E0
:105920009160818C890607D501688A6801235B0331
:105930009A43C36B1A438A60818C490612D5036867
:105940005A6801210905046C8A4322435A60026C9B
:105950008A4207D10268516803235B059943436C6F
:1059600019435160818C090607D501684A680123F3
:10597000DB04806C9A4302434A6010BDF8B50446CC
:10598000002680300660FEF76DF905462068006845
:10599000124F000709D501212B4600224905204658
:1059A000009700F0E7F900280DD120680068400753
:1059B0000BD501212B46002289052046009700F0D7
:1059C000D9F9002801D00320F8BD2020A067E067A6
:1059D0002666603426750020F8BD0000FFFFFF0139
:1059E00010B5406A0022014640314A834A82FEF7E0
:1059F00060FE10BD10B5EFF31081012282F3108814
:105A000002681368FF242134A343136081F31088D4
:105A1000EFF31081012282F31088026893685B081B
:105A20005B00936081F31088016E01290BD1EFF3C5
:105A30001081012282F31088026813681024A343A6
:105A4000136081F310882021C1670021016641663F
:105A500010BD70B5014640318B8BC46F0268222C9B
:105A600004D0906908210843906170BD928C446D08
:105A70001A402280426D921C42654A8B521E4A8314
:105A80004A8B002AF1D1EFF31082012383F31088AF
:105A900003681C68FF252135AC431C6082F3108825
:105AA000EFF31082012383F3108803689C68640875
:105AB00064009C6082F310882022C2670022426644
:105AC000036E012B02D0FFF703F870BD0266EFF3FF
:105AD0001082012383F310880468256810239D43F6
