:020000040800F2
:10000000680B002085010008FD4E0008554D0008D2
:1000100000000000000000000000000000000000E0
:10002000000000000000000000000000A9550008CA
:10003000000000000000000031550008535800087F
:1000400097010008000000009701000897010008D0
:100050009701000897010008970100089701000820
:1000600000000000970100089701000897010008B0
:1000700097010008970100089701000800000000A0
:10008000CD58000897010008000000009701000803
:1000900097010008970100089701000897010008E0
:1000A000970100089701000897010008695F0008A0
:1000B000955F000800F002F800F054F80CA030C87A
:1000C000083824182D18A246671EAB4654465D46D4
:1000D000AC4201D100F046F87E460F3E0FCCB6464A
:1000E0000126334200D0FB1AA246AB4633431847E1
:1000F000E477000004780000103A02D378C878C191
:10010000FAD8520701D330C830C101D504680C6059
:10011000704700000023002400250026103A01D378
:1001200078C1FBD8520700D330C100D50B607047AF
:1001300010B5642902D100F025F910BD002010BDD2
:100140001FB501F095FD04000020002107F0F4F92F
:10015000401C60600020002107F0D8F9E0601FBD5E
:1001600010B510BD01F050FA1146FFF7E9FF06F097
:1001700015FA01F001FD03B4FFF7F2FF03BC02F032
:10018000A7F800000748804707480047FEE7FEE75A
:10019000FEE7FEE7FEE7FEE704480549054A064B91
:1001A00070470000CB580008B50000086805002023
:1001B000680B002068070020680700204343514374
:1001C00030B55C18010C130C0D4692B25D4380B241
:1001D00051432C19054655430A0C09044D19624137
:1001E0005843010C00044019514130BDFEB505468D
:1001F00010460C46184373D0AE468C460020AD1A0C
:1002000001469C4167D36646002701243D46B61A45
:100210009D4102D313463A462124654676462F0473
:10022000360C3E432D0CB61A9D4104D3150C1B040D
:100230002B4312041034654676462F06360A3E4399
:100240002D0AB61A9D4104D3150E1B022B43120230
:100250000834654676462F0736093E432D09B61AFF
:100260009D4104D3150F1B012B431201241D65462C
:100270007646AF07B6083E43AD08B61A9D4104D393
:10028000950F9B002B439200A41C65467646EF0712
:1002900076083E436D08B61A9D411AD392185B4109
:1002A000641C16E00018764665464941B71A9D4120
:1002B0000191009009D36046B11A98418E46844658
:1002C000009801990025401C6941DD0752082A4326
:1002D0005B08641EE6D57246634603B0F0BDFFE7D7
:1002E00000200146C046C0462A462346F5E70000E6
:1002F0000FB41CB5074B06AA7B44694600900598CD
:1003000000F0B3FF0020694600F0C2FF1CBC08BC2F
:1003100004B01847950F0000F8B50E4604460020BB
:1003200020622046E1688847002829D0252802D08D
:100330006268A16820E0E168204600278847050040
:100340001ED028464138192802D80127FF0220353F
:100350003246204627602946FFF7EAFE002808D0EB
:10036000012804D0F61DF608F6000836D9E7361D38
:10037000D7E762682846A1689047206A401CCFE70B
:10038000206AF8BDF7B5002575291068009914A6F4
:1003900011D0C046C046002802DA404211A608E04B
:1003A000009909688A0701D50FA602E0490704D51C
:1003B0000EA6012501E0C046C046009F0024243758
:1003C00004E000F0C1FF30313955641C0028F8D139
:1003D0002B4632462146009800F0E9FEFEBD0000A3
:1003E000000000002D0000002B0000002000000095
:1003F00030B5441C03E00178401C00290DD0810772
:10040000F9D10B4BDD0104C8D11A91432940FAD030
:10041000001B0A0603D0C01E30BD001B30BD0A04FD
:1004200001D0801E30BD0902FCD0401E30BD00004E
:100430000101010101E004C0091F0429FBD28B075F
:1004400001D50280801CC90700D0027070470029C6
:100450000BD0C30702D00270401C491E022904D3EE
:10046000830702D50280801C891EE3E70022EEE7A5
:100470000022DFE7002203098B422CD3030A8B42C0
:1004800011D300239C464EE003460B433CD400228C
:1004900043088B4231D303098B421CD3030A8B429E
:1004A00001D394463FE0C3098B4201D3CB01C01A6C
:1004B000524183098B4201D38B01C01A5241430937
:1004C0008B4201D34B01C01A524103098B4201D325
:1004D0000B01C01A5241C3088B4201D3CB00C01A92
:1004E000524183088B4201D38B00C01A524143080A
:1004F0008B4201D34B00C01A5241411A00D201462F
:100500005241104670475DE0CA0F00D049420310C7
:1005100000D34042534000229C4603098B422DD316
:10052000030A8B4212D3FC22890112BA030A8B42BE
:100530000CD3890192118B4208D3890192118B420D
:1005400004D389013AD0921100E08909C3098B4292
:1005500001D3CB01C01A524183098B4201D38B01D5
:10056000C01A524143098B4201D34B01C01A524178
:1005700003098B4201D30B01C01A5241C3088B42BD
:1005800001D3CB00C01A524183088B4201D38B00A8
:10059000C01A5241D9D243088B4201D34B00C01A32
:1005A0005241411A00D20146634652415B10104647
:1005B00001D34042002B00D54942704763465B108F
:1005C00000D3404201B50020C046C04602BD70477E
:1005D000704770470246C80FC00781434B0030B5D3
:1005E0004B405B009B0D20D01923DB06C91801236B
:1005F0001B05994220DB0324A40704251346AB40C6
:100600000BD3002B04D1EB0613409B00E34204D430
:1006100001246407002312195941FF231B05994245
:100620000BD2C9000143500F09E0CB0204D50143AE
:100630000803024305D0054830BDFF21C905084322
:1006400030BD084607210905884330BD0000C07F42
:10065000F0B50C46871A9C410D46861A9D4103D27F
:10066000C01BA141D21963410D0D1F0DC94EEC1BDA
:10067000AE435CD07F057F0D0026002F51D02D05A5
:10068000AC46A943DD020123ED0A1B051D432023CF
:100690001B1B24D41746E740381871412F46E7400A
:1006A000CC199D402818314661410C0D27D1614479
:1006B0009A4013D50023401C594152000ED14008E6
:1006C000400001224B005205D34207D305204007CA
:1006D000C14201D5B04900E0B0493046F0BD6B00E1
:1006E000002A00D001229A181F23203C1B1B01D591
:1006F000002302E0E540281871410C0DD7D00124F9
:1007000024050919C407CD0740084908E40F284308
:100710006144002CD5D00024401C61419A40D0D1C6
:10072000CDE76A05520DD9D1C90FC907D5E79C4D50
:100730004E00002801D0012400E0002434195F009D
:10074000002A01D0012600E00026BE19954FAC42D8
:100750000CD8AE420AD8B44206D001256D05EC4251
:10076000BCD010461946F0BD9942FCD00020394655
:10077000F0BDF0B51FB40C460F46811A9F412546C7
:10078000861A9D4106D20125ED076F40401ABC41F3
:1007900052187B41210D1E0D8D1BAC467D4D8D43A6
:1007A0007ED075056D0D7CD00D05AE46AC431B03A8
:1007B0001B0B794D52429D41202366469B1B14D34F
:1007C0001746F740381800260090744160462F46BF
:1007D0000741E41900989D402818664116D47146D7
:1007E00071189A4025D5012320E093182A466A41C2
:1007F0005200002B00D0521C1E23203E9B1B002BBE
:1008000061DD3541EE1728186641E8D500187641BC
:100810005B1C9A4000D3401C4B05F3181524E340A1
:1008200010D3002B52D071467118D30FC01802D3C9
:10083000491C05B0F0BD0123DB079A42F9D14008FD
:100840004000F6E701225205B21801D1002853D02A
:100850000123CC0ADB029943891E002A08D1020C2D
:1008600003D0020C0004103902E0024600202039B7
:100870000023550B05D112020823550B01D152015B
:100880000D23550C01D112011B1DD50C01D1920075
:100890009B1C150D01D152005B1C2025EE1A01E0B6
:1008A0002CE022E00546F54015439840CA1AE107BE
:1008B00069181305C918002ABBDA03204007081875
:1008C000C10FC9070FE071466118B2E7F107400890
:1008D0000843711071444A000CD001235B059A4211
:1008E000A7D2C90FC9070020A3E74905490D26D1A2
:1008F000002001E00028F4D100219AE7284D66008D
:10090000002801D0012100E0002171185F00002AB9
:1009100001D0012600E00026BE19224FA94210D8BE
:10092000AE420ED8B14208D001256D05E94206D08D
:100930001946A802414010467BE79C4201D021465F
:1009400077E70020394674E710B50C465C4005D5C2
:100950000124E4076340FFF70CFF10BDFFF778FEAA
:1009600010BD30B40C465C4004D50124E40763405C
:1009700030BC6DE630BCFCE670B50124E407614094
:100980000D465D4002D4FFF763FE70BD6340FFF784
:10099000F0FE70BDFF0700000000F0FF0000F07FD8
:1009A0000000E0FF0000F87FF0B5F94D0C091E09CA
:1009B0002C402E402F468BB0A7437DD0B543FCD0B2
:1009C000002E7AD0002CFCD00D465D40ED0F254363
:1009D000AC1BFF25AD0464190894C502440DC9027F
:1009E0002143500DDC0204430120C00701430443AE
:1009F000D2020191200C110C00958C460104234673
:100A00008B430A9161460904E24D8A430991010A28
:100A10007D4449198039097805464D4301266D18F2
:100A2000F605751B6943C90C640B891C4C4364189B
:100A3000B5012C1B250C2E04B4434C434D43210C13
:100A4000691889090591009DE90701D00121C907AD
:100A500004912C4601996708CD072F434C08059D4A
:100A6000E10B4D432D0C29466646754302950D4614
:100A700045432E46029D7D1BB44100950D465D43C6
:100A800001942C0C2F040D465543AE462D0C3D43CE
:100A9000029503947546049C2D04641B049406D2AD
:100AA000029C039D641C002675410395029401ACD1
:100AB00070CC009F7D1B01E03EE162E1B44109047E
:100AC0000095079101940599A4086143090C0C460F
:100AD0004443650BE7040C4666467443A646640B24
:100AE0003C43039502947446049DE4042C1B049437
:100AF00006D2029C039D641C002675410395029456
:100B000001AC70CC009F7D1BB44101940C465C434A
:100B10000095650FE7000C465443A646640F3C431E
:100B2000039502947446049DE4002C1B049406D2A1
:100B3000029C039D641C002675410395029401AC40
:100B400070CC009F7D1BB441AE09AF06049DC90067
:100B5000AD092F43049DA406AD060495079D3443BB
:100B600069180791059DE10B4D432D0C29466646FA
:100B7000754302950D4645432E46029D7D1BB441AB
:100B800000950D465D4301942C0C2F040D465543F2
:100B9000AE462D0C3D43029503947546049C2D04EE
:100BA000641B049406D2029C039D641C00267541BC
:100BB0000395029401AC70CC009F7D1BB44101945D
:100BC0008C050694079C890A611800950791019C81
:100BD0000599A4086143090C0D464543680BEF04D1
:100BE0000D46644665436C0B3C43049FED047D1B3E
:100BF000AC4602D20025641C6841009E019D371B53
:100C000085410846584301950C46460FC50054439C
:100C1000600F28436546E4002C1B02D20025401CCF
:100C20006E41019D3F1AB5412846BD098006284303
:100C30008446A009BF064E020699A406761807430B
:100C4000079D002068410A99079019430020099BDD
:100C500000906046FF1913434041E20F64003A439D
:100C6000A4460446D71A8C41A04203D90120009023
:100C700020463A46C70F941840416246D20F22439D
:100C8000644664000494009CBE466400D71AA446DF
:100C9000044602978C417746002F01D1A04204D927
:100CA0006046401C8446029A2046C40FA64694180B
:100CB0004041049A0546D20F224364466400D31A89
:100CC0008D417146002901D1A84202D928461A4611
:100CD000641C10430122002800D01643610200204A
:100CE000079B891904465C410223002C02DB49184A
:100CF00013466441089DCE0A2D145D194B05670506
:100D0000E10A2C050D1908993E43C9076940002BDB
:100D100008D0934006D30022761C5141002B01D10C
:100D2000760876001C4A002D43DB154241D0AA43C9
:100D30003FD030460BB0F0BD06180D464D41174C64
:100D40007642AC411AD395181C465C41134A6D4259
:100D5000A24113D3012252054C00D4420AD15C00B7
:100D6000D4420BD04B4002D592021143E2E7490036
:100D70004908DFE75940C90FC90718E000200849B2
:100D8000D8E7054801420DD10342F7D0F2E7000051
:100D90000000FF07196D00000000F07F0000E0FF79
:100DA0000000F87F114859400143C0124140002023
:100DB000C0E70123089A9B069A4205DC03225207EA
:100DC0008918C90FC907B5E7052252078918074ACC
:100DD0001143D2125140ADE770B515461C4602468C
:100DE0000B4628462146FFF7DFFD70BDFFFFFF7F62
:100DF00030B50346CA02400D1043164D164C0A1575
:100E000002D02043002A06DBAA1A002A12DDD040B5
:100E1000FF2A0BDC30BD5205520D01D140004008C5
:100E2000AA1A07D4D0404042FF2A01DD002030BD7D
:100E30000028FCDD4A00002B01D0012000E000204A
:100E4000101801225205D042F0D8C817C0436040A4
:100E500030BD00001E040000000000800346CA02EE
:100E6000400D10B510430A1504D00124E4072043B7
:100E7000002A05DB0A4CA21A04D4D040FF2A00DD68
:100E8000002010BD4A00002B01D0012000E000200E
:100E9000101801225205D042F2D8C817C04310BD25
:100EA0001E0400001F22030C02D10F22000402D0F6
:100EB000030E03D004E00020014670470002083A08
:100EC000030F01D10001121F830F01D18000921E78
:100ED000002801DB4000521E120551184205C012C5
:100EE000411810467047C10FC90700D04042012287
:100EF00092071143D6E701218907D3E7F0B58B4C60
:100F00000F09254689B0BD437BD01D092646AE4357
:100F1000FAD00E465E402740F60F3E43254071D082
:100F200024012142FBD0FF24AD19A4042D1B0395FD
:100F300001252D05DB02DB0AC9022B43C90A29431F
:100F40001E010901040F130F050121431701880B2E
:100F5000820391432D098C46A90B1E438A039543B6
:100F6000B30B9A0396433F09BA0B9403A743029627
:100F70002E467E430497B6464E19D7190C46019665
:100F8000544305977E43371B7646BF1B3601B64652
:100F9000BE0B361900967646BC043719009C01D367
:100FA000641C00946400002F01D001263443029E8B
:100FB000049F754366467E430496760034196E009E
:100FC00034190094029C019E1C196643751BAE46A1
:100FD000069465464519059C05956C43594375462D
:100FE0000891691A0191049E01465143A41B049182
:100FF000611A009C0791E10605D0610901221143A5
:1010000002E072E06EE06109089D00272C0A2D06BF
:101010006918049D7C412A0A2D066918019D6241C8
:10102000AC0DAD026D185441079A910D92025519FD
:101030006141029A644658435443069B059A5A43B9
:10104000121A131B9A0E9B015B187A41010B0005C3
:10105000C3185141220A200644195A419A4200D22B
:10106000491C01204002814203D315230226F64386
:1010700002E014230326F6432020C51AA940174690
:10108000AF40DA400A4320460399D8400914731848
:1010900019055118039A3843D2075140AC4009D082
:1010A0000122944006D30022401C5141002C01D162
:1010B000400840001E4A934212D301220398920630
:1010C000904207DB0520400709181A480143C01267
:1010D000414004E0032040070818C10FC907002061
:1010E00009B0F0BD0020F107FAE705180C464C41A5
:1010F00011486D42A04115D394181A465A410E4822
:10110000644290410ED301204A004005824209D337
:101110005A00824206D35940C90F084AC907002025
:101120001143DDE700200649DAE700000000FF0771
:10113000FE070000FFFFFF7F0000E0FF0000F07FE0
:101140000000F87F0121C9050123411842001B0658
:10115000D3185B0E0AD0C1100722D20689184007A7
:101160005242D14201D5520089187047090208D570
:101170000146002A03D0C10FC9070020704710465E
:101180007047420202D0002002497047072109053A
:101190000143F4E70000F87F10B500F061F9006842
:1011A00010BD10B5044600F05BF9046010BDFFB53A
:1011B00004460D4681B0243000902168880604D58D
:1011C0001022E0699143216000E00120A84201DD86
:1011D000471B00E000270498A1697A191018081A23
:1011E000A0612078C00602D42046C046C046002632
:1011F00008E003986268A168805D9047206A401CFF
:10120000761C206204988642F3DB2078C0060AD55B
:101210002046C046C04606E06268A168302090477C
:10122000206A401C206238467F1E0028F4DC07E05C
:1012300000986268A168405D9047206A401C206267
:1012400028466D1E0028F3DC2046C046C0462078A4
:10125000000602D5022005B0F0BD0120FBE700002A
:1012600001694A1C02610878704700B58FB002918D
:101270000021059105490193794403911146049099
:101280006846FFF749F80FB000BD0000E5FFFFFF1B
:101290000A681070521C0A60704700000FB40023E7
:1012A00000B589B00CA900910B99CB60224B7B440F
:1012B000224A7A440792042206930192204A02921B
:1012C000204A7A446B4608920246002006F008FA4B
:1012D00009B008BC04B0184770B5064615460C4660
:1012E000324686B00020C04301900020049004A83C
:1012F000009102916946FFF7D1FF02460498211838
:10130000002D05D0002801D0084600E020462860C6
:10131000049800280DD0002A02DD0098884208D0E9
:101320003246081B6946019004A800940294FFF716
:10133000B5FF06B070BD0000C9010000E501000066
:10134000FFFFFF7FA301000001468008081A020981
:101350001018020A1018020C1018C0088200121887
:101360005200891A01E0401C0A390A29FBD2704751
:10137000F8B5224C4E00069DA6420AD8A64201D1DD
:10138000002806D15E00A64203D8A6420AD1002A50
:1013900008D00D24240425422CD02946002000F03A
:1013A0008EF8F8BD0C461C430CD4994202D0EFF3E2
:1013B0000080F8BD904202D0EFF30080F8BDEFF35B
:1013C0000080F8BD09242407E5008B4206D0EFF326
:1013D0000080A043591A06D2284304E0101A05D30E
:1013E000EFF30080A04380F30088F8BDEFF30080A6
:1013F000A043F1E7009500F079F8F8BD0000E0FFA8
:1014000070B505464800440D124B0020002C0AD050
:10141000634008D09A4206DA6642B24203DD120502
:101420004019514170BD002C08D0002B09D0C90FC4
:10143000C907002AF6DB084A114370BDC90FC90766
:1014400070BD28460A03104302D00020034970BD36
:10145000284670BDFF0700000000F07F0000F87F05
:10146000004870470405002010B5044600F0ECF871
:101470000068005DC007C00F10BD4268002A08D098
:1014800001680B78491C002B03D0521E06C0184679
:1014900070470121C160881E70474268002A0BD046
:1014A000C3680168002B07D183688B4204D0491EB2
:1014B000521C06C0002070470020C0437047C8027D
:1014C00012D54803400F002804D0C803C0430121AF
:1014D00088407047EFF300800001000903210907ED
:1014E000084380F3008870470020704710B5002043
:1014F0000249029A00F08CFB10BD00000000F87F4A
:10150000F0B53D4B02460C461C400020002C63D039
:101510003A4D8B4366D000296BDB0B0D1D05A943AB
:1015200001252D0529430124FD33E34001D3921801
:101530004941FF3381339C468B02940D01212343A3
:1015400089074C42920200271B198C105D1A04D4A3
:101550002D1B02D42B466500491992185B41640883
:10156000F4D15C1A08D40125ED07EE175519744122
:1015700002D42A462346491C94185B410122920753
:101580001D46E61B8D4106D4B61A854103D42B4671
:10159000550034467F1924195B415208802AEFD147
:1015A000234300D0022338460A22D04001D301222F
:1015B00013438A0510436246890A12058918002BD5
:1015C00009D00122D34002D30022401C5141002BFC
:1015D00001D140084000F0BD0B03134307D0C90FF1
:1015E000C907F0BD0803104303D1002901DB1046F1
:1015F000F0BD00202946F0BD0000F07F0000F87F1C
:1016000000487047040500207546FFF7F9FFAE4615
:10161000050069465346C008C000854618B020B58D
:10162000FEF7BAFD60BC00274908B6460026C0C5D3
:10163000C0C5C0C5C0C5C0C5C0C5C0C5C0C5403D8A
:1016400049008D467047000010B500F011FB001DE9
:1016500010BD00BFE55E0000FFB58BB00878FF2825
:1016600006D0491C2D2805D000230020009009E059
:1016700000200EE00123F8E7009A0A246243801854
:10168000491C00900878FF28F6D1002B02D0009862
:1016900040420090002503952C460D9800782D2897
:1016A00001D02B2815D10D99491C2D280D9102D060
:1016B000002003900DE00120FBE7401C214600279D
:1016C0000A223B460D902846FEF778FD35183C4629
:1016D0004C410D980678FF2EEFD1002108460020DE
:1016E000C0460399002902D081004018400800023A
:1016F000860F012E01DD0026F6430E99009847184B
:10170000284620430BD0FF20F530C7421ADA039851
:10171000C1070B98002E41600ADD012009E0039803
:10172000C1070B9841600B99002008600FB0F0BD15
:1017300000200B990860FFF793FE02210160182139
:1017400008461AE0FF20F530874219DD002E02DA44
:10175000FC48784401E0FC48784406C80B9806C071
:101760000B9803994068C90708430B994860FFF735
:1017700077FE02210160142108460020C046D5E70B
:10178000002108460020C04639000A9001D5724267
:1017900000E03246002900DA794207A800F06CFA2E
:1017A00007AB07CB04AB07C3E84800900020014615
:1017B000214304D12C460546E44920390091210CEF
:1017C0000904014306D1290C24040C4300992D047B
:1017D00010390091210E0906014306D1290E240279
:1017E0000C4300992D0208390091210F090701438C
:1017F00006D1290F24010C4300992D01091F0091E6
:10180000A10F8907014306D1A90FA4000C43009939
:10181000AD00891E0091E10FC907084304D100986B
:101820006D196441401E0090002F0295019406DD61
:1018300032466846012304A900F0B2FC05E001230A
:101840003246684604A900F000FD044603980D46A0
:10185000002802D00120C007444000210846002093
:10186000C0460A99BA4E48400007800F07D1600071
:101870004008284303D06000400DB04214D1FFF768
:10188000EFFD022101606000400DB0420CD1B14873
:10189000784406C80B9806C00B98E10FC90740684A
:1018A00008430B99486041E70B9844600B9805602A
:1018B0003CE7FFB51F4695B0002000250C909E68C0
:1018C0005C68ED43139000F0D3F9C0680168405C98
:1018D0001490B96916986D1C88470A90396A884730
:1018E0000028F6D10A98401C0AD00D20C00184437C
:1018F000002E12DD0A982B2809D02D280DD103E0E7
:101900000020C04319B0F0BD012080020443B96932
:1019100016986D1C8847761E0A90600504A901D5AB
:101920002D2000E02B206A46491C107410A8002EC0
:101930000D910B903BDD0A98692805D0492803D00A
:101940006E2801D04E281DD13B46039002200296FE
:10195000179A1699C0430095019405F0D1FEC11C59
:10196000D0D10FE0B96916986D1C88470A90012004
:10197000761E40020443179805601398401C002E01
:10198000139014DD0A983028ECD0782801D058281C
:101990000DD1139801280AD13B460296179A169941
:1019A000001F0095019405F0A3FEC11CAAD1149953
:1019B0000A98884246D18020044308E00C98179981
:1019C000401E0C90012040020443681C0860B96965
:1019D0006D1C1698761E884730280A90EED031E0AC
:1019E0001499884205D1200603D480200443761E32
:1019F0001EE00A9804F038FC002826D0012008A92F
:101A0000400204430D980331761E88420BD20A9897
:101A10000D99303808700D98401C0D90200607D5A0
:101A20000C98401E03E0200602D40C98401C0C9039
:101A3000A00502D51799681C0860B96916986D1C35
:101A400088470A90002ECBDC59E0002E57DD0A981B
:101A5000652801D0452852D1A00550D50320B96989
:101A6000000284436D1C1698761E8847002E0A904B
:101A70000CDD2B2804D02D2808D1FF200130044391
:101A8000B96916986D1C8847761E0A90E00501D545
:101A90002D2100E02B210B9801700B98401C0B901E
:101AA000009025E0012012A9400204430B98013167
:101AB000761E88420ED20A980B9930380006000E26
:101AC000087003D100990B9888420AD90B98401CE2
:101AD0000B9006E0E00501D51F4801E01E4840429A
:101AE0000C90B96916986D1C88470A901798056084
:101AF000002E04DD0A9804F0B7FB0028D2D1F96962
:101B0000169888470D99FF2004AA08700B99087051
:101B100000200E900F900C9B10A90EA8FFF79CFDC3
:101B2000A00502D40120C043ECE62420044215D0D5
:101B3000E0071FD138680F9A0E99031D3B600068BB
:101B400006C017E0A6610000986100003E4000005A
:101B5000FF07000060600000F1D8FFFF0EA9684693
:101B600004F00CFBE00705D13868009A011D3960CC
:101B7000006802602846C5E610B50446C046C04667
:101B80002046FEF7F8FA10BD024670B50A439207E8
:101B90002AD11E4DEE0104C808C9541B9443344099
:101BA00017D0D0B2D9B2401A2106014310D190B259
:101BB00099B2401A210401430AD110021902000A05
:101BC000090A401A2102014302D1100E190E401ACF
:101BD00070BD9A42DFD010BA19BA884201D90120EB
:101BE00070BD0020C04370BD02780B78401C491CBA
:101BF000002A09D09A4207D102780B78401C491C70
:101C0000002A01D09A42EFD0D01A70BD0101010123
:101C100010B50C461107090F092904D00A290AD06A
:101C200008290CD104E011460820FFF748FC06E023
:101C3000510606D501E0510601D50120C007214615
:101C400010BDD10607D501010909CC084907000ECE
:101C50000006044309E0410F20024907000A01433E
:101C6000200E00061D22D14101430846E7E700008F
:101C70000048704724050020F7B516468AB033485F
:101C800078446C4603467C33C06F5A689B680DC429
:101C90002E487844763003AC0DC80DC43720C001FF
:101CA000081837211B30FEF7EFFB05460C46803D38
:101CB0001B3C02D56442012000E00020002709906F
:101CC00010E0E0070CD00C202049784379443246DC
:101CD0004C3941186846012300F054FA6B4607C39B
:101CE00064107F1C002CECD1184F7F442E3F16E06F
:101CF000E80712D02001C0190EC806910893079278
:101D00000068F04201D1981908903246012306A9D3
:101D100003A800F037FA03AB07C36D10641C002D55
:101D2000E6D10998002806D032466946012303A867
:101D300000F07EFA05E001233246694603A800F070
:101D400021FA0A9B07C30DB0F0BD0000BC5B000088
:101D5000034640000A4610B5400D0BD00121C907CB
:101D60000F24A40200191C0364082143540D2143CD
:101D7000D20207E000210120F2E7D40F49002143FD
:101D80005200401E0029F8DADB0FDB07184310BDB4
:101D9000FFB50D46144685B04868516804F010F947
:101DA00000910190A868A16804F00AF902910390DB
:101DB000A868616804F004F9029A1218824202923B
:101DC00001D2012000E00020019A0B18D21800284F
:101DD000019202D08A4202D903E08A4201D2012054
:101DE00000E000200099081800906868A16804F0DD
:101DF000E7F8029A12188242029201D2012000E012
:101E00000020019A0B18D2180028019202D08A42B1
:101E100002D903E08A4201D2012000E000200099AB
:101E200008180090286821684000490040084908C7
:101E30004018FA49471814E001994000C90F0843B7
:101E40000090019802994000C90F08430190029840
:101E500003994000C90F08430290039840007F1E79
:101E6000039000980028E7DA0898002801D0EC4E8B
:101E700000E00026B74201DA012000E0002000283F
:101E800004902AD0F71BF806C00E15D0029B202123
:101E9000091A039A8B401A430392029A019BC2408B
:101EA0008B401A430292019A009BC2408B400099DA
:101EB0001A430192C14000917B110DD06F4603205F
:101EC000C11A03D500218200B95003E08A008100C5
:101ED000BA587A50401EF3D5374603980299002825
:101EE00000D00120014308980291002808460CD038
:101EF000002800D001200199019A490508430121D9
:101F0000D20AC902D202019200E001210E9B0122F5
:101F1000D207012B02D0002B03D013E0002807D1F9
:101F200020E0904204D890420CD1019B0B4209D092
:101F3000019B5918019105D10099491C009101D1CB
:101F40007F1C009200280DD0102108460020C046BA
:101F50000498002806D00F98002803D008210846CE
:101F60000020C04628682168019B009A4840C10FA4
:101F70000598C90739430EC009B0F0BDFFB587B059
:101F8000099A089808995368926840688968964643
:101F90000022039317469446089A12685300099A40
:101FA0005B081268520052089A1A9E4BD4180A9A7B
:101FB000002A01D0352200E04022069200220123AF
:101FC00015460492DB07059324E0002D05D17546E4
:101FD0000346039E4D1BB34109D375466646039BDA
:101FE000491B049D9841059B7519AC465F416346AA
:101FF0003B4308D0059B049EDD0776082E435B0813
:102000000496059301E0521E641EC50FED074918A2
:102010004041521C069B9A42D7DB002D04D17546E5
:10202000039A6B1A824101D203200CE0039A0B46FB
:102030006B404240134303D0014303D0012002E030
:10204000022000E0002061460191002100970291EA
:102050000A99002905D0614640020143704B019165
:1020600002E08007002302909C4201DA012000E098
:10207000002007003AD01A1BD006C00E15D0029DD2
:102080002021019C091AC5408C402543029C8C40AC
:1020900000D001242543019C0295009DC4408D4041
:1020A00000992C430194C140009154111DD06D46FC
:1020B0000221002202290CD10320001B07E0002886
:1020C00004DB8600AE59002E00D00122401C0328FC
:1020D000F5DB081B02D588002A5004E08000285850
:1020E00010438A00A850491EE3D51C460A980028D0
:1020F00002980CD0002800D001200199019A4905CE
:1021000008430121D20AC902D202019200E0012152
:10211000109B0122D207012B02D0002B03D013E029
:10212000002807D11FE0904204D890420CD1019BB7
:102130000B4209D0019B5918019105D10099491C06
:10214000009101D1641C009200280CD01021084697
:102150000020C046002F06D01198002803D0082187
:1021600008460020C04608980999019A009B00681B
:1021700009684840C10F0798C907214382600AC017
:102180000BB0F0BD00B585B0019300920A46014640
:10219000002302A8FFF7FCFD02A807C805B000BD98
:1021A000FFB50A461F4685B00799019301230091A8
:1021B000014602A8FFF7ECFD02990398049ECA0F9E
:1021C0004900D20700920F22490892028C1A00217E
:1021D000002800DB0C46450013486D08844214D3E8
:1021E000079A002A04DA441E0026104DF64302E046
:1021F00004460D460E46102108460020C046002F1A
:1022000003D0042108460020C0462005E90A0843FF
:10221000009908436905F20A1143ADE602C0FFFFC9
:10222000013C0000FF3F0000FF070000FFFFFF7FB1
:1022300000B585B0019300920A460146002302A82A
:10224000FFF79CFE02A807C8A8E7FFB50A461F468D
:1022500085B00799019301230091014602A8FFF779
:102260008DFE02990398049ECA0F4900D20700927E
:102270000F22490892028C1A0021002800DB0C462C
:10228000450011486D08844214D3079A002A04DAE5
:10229000441E00260D4DF64302E004460D460E4650
:1022A000102108460020C046002F03D00421084614
:1022B0000020C0462005E90A084300990843690543
:1022C000F20A114358E60000FF070000FFFFFF7FFE
:1022D00001491820ABBEFEE726000200FFB51F46ED
:1022E00089B0139812994005C00FC00705900020CF
:1022F000079005460446461E049002903C20491C67
:1023000012910690B9690A98884703901498401E64
:1023100014901498002841DD03982E2816D010211F
:1023200000F025FA002834DB0121049107990143CC
:102330001AD0069900290CDB069AC11700F007FA9B
:10234000054306980C43001F069006E0012002900A
:102350000EE0002801D001200543012007900298DB
:10236000002805D1361D03E00298002800D0361F52
:102370001298401C1290B9690A98884703901498E3
:10238000401E149004980028C3D00B99129808603E
:10239000BFE70398702808D0502806D0F9690A983A
:1023A00088470498002815D051E0002003900120B0
:1023B0000290049800280AD01298401C1290B96923
:1023C0000A9888471499491E0029149106DCF96976
:1023D0000A9888470120C0430DB0F0BD2B2804D0D7
:1023E0002D280DD10020C04302901298401C12905D
:1023F000B9690A9888471499491E00291491E6DDA5
:10240000411CE4D00A2100F0B2F90028DFDB039977
:102410000A225143081803901298401C1290B9697F
:102420000A9888470A2100F0A2F914990B9A491ECC
:102430001491129911601499002901DD0028E6DA3F
:10244000F9690A98884702990398484386191398AE
:102450002421084004902846204304D0A10F890776
:10246000090002D006E005989BE0A90FA4000C43E8
:10247000AD00B61EE10FC907080002D16D19644115
:10248000761E0498002803D00B2002905D4803E0DC
:10249000282002907D20C0438642039007DA811BEA
:1024A000029808184128029001DD41200290029A0A
:1024B00001200021521E00F04AF9024628400B4636
:1024C0002140084301D0012000E0002007900020B7
:1024D000521EC04343412A4023401A4301D00120E9
:1024E00000E0002007990690014352D000210846E1
:1024F0000020C0460321059A89050840002A05D01E
:1025000082008018C20F1018401008408015012862
:1025100002DD0020C04301E0012815D0401C38D066
:102520000798002835D0069800280DD1029A01207E
:10253000002100F00CF928402140084301D001207F
:1025400000E00020002824D0029A0120002100F0A1
:10255000FEF8034640198C4661412A1A8C410FD37C
:102560000298402807DD0498039E002801D0343EDD
:1025700002E0173E00E0761C01240025E40708E095
:102580005B1E62460024E4436241DD43D4430540C0
:102590000C4003980121081AB04206DA1A4905983E
:1025A00008430190002000900EE060006205010BDE
:1025B000E80A1043059A009068460A4313490A4303
:1025C0003146019203F046FE049800280AD0139881
:1025D000C00714D13868019A0099031D3B60006858
:1025E00006C00CE002A8694603F0C8FD1398C007B6
:1025F00005D13868029A011D39600068026012989E
:10260000EAE6000002FCFFFF0000F07F0000F03F60
:10261000FFB51D4687B01198484A109C129E400590
:102620001399C00F761EC007024301920022009248
:10263000FF22D2051043202291434929059003D05F
:1026400017464E2928D04FE03DA002AA0BC801270B
:102650000BC2A9690898641C8847761E014607D4F6
:1026600002A8C05D002803D02022914381420AD0F5
:10267000E96908988847032F36D0082F34D0012005
:10268000C0430BB0F0BD7F1C032F01D0082FE0D159
:102690000999601C0860DCE7A9690898641C8847F0
:1026A000761E2DD4B84341282AD1A9690898641C04
:1026B0008847761E24D4B8434E2821D1A9690898AA
:1026C000641C884701990122D204114301910599A4
:1026D000D200114305910999761E0C6001D4282877
:1026E00006D0E969089888471198C00712D023E0FE
:1026F000A9690898641C8847761E01D4002803DA6B
:10270000E96908988847BAE72928F1D10998641C33
:102710000460E9E711982421084207D02868019A4B
:102720000099031D2B60006806C005E02868059924
:10273000021D2A60006801602046A2E70000F07FC9
:10274000494E46494E49545900000000704710B5A3
:10275000202A04DB0146203A9140002010BD914020
:1027600020239C1A0346E3401943904010BD3A28A9
:1027700000D23038202302469A43412A01D3104622
:102780003738884201D30020C0437047FEB500248B
:10279000174E0D460746012200941102304601945F
:1027A00001F0E9FA012000F0CBFE012100224902EC
:1027B000304601F0E0FA684604E0391949780155DD
:1027C000641CE4B2AC42F8D30024074604E0385D50
:1027D00000F010F8641CE4B2AC42F8D301225102BC
:1027E000304601F0C8FA052000F0AAFE2046FEBDE2
:1027F00000040048F8B50024114EFF2705460137B4
:102800000720011B2846C840C207D20F802130464E
:1028100001F0B1FA00223946304601F0ACFA01204D
:1028200000F08EFE01223946304601F0A4FA012064
:1028300000F086FE641CE4B2082CE1D3F8BD000071
:102840000004004870B504460846FEF77BFC0B4BBD
:102850000CCBFEF753FBFEF701FB010186048D0C48
:10286000B60C012025432643400300F01BF83046F8
:1028700000F018F8284600F015F870BD1800002088
:1028800010B50C46064904F0D3FE01460120800332
:10289000FFF7D8FF00212246084600F013F810BDCC
:1028A00000007A441CB5064A06CA01920091020A49
:1028B00069464A70887002216846FFF767FF1CBDB1
:1028C0002877000810B508431043FFF7EBFF10BD51
:1028D000F8B50021172000F0FFFB0121022000F0D5
:1028E000FBFB0926F60601220221304601F043FADD
:1028F00000221021304601F03EFA0022012130462C
:1029000001F039FA01210D2000F05EFC782001F081
:1029100049F901210E2000F057FC782001F042F91E
:1029200001210B2000F050FC782001F03BF901213F
:102930000C2000F049FC782001F034F90121092035
:1029400000F042FC782001F02DF90121132000F065
:102950003BFC782001F026F90121122000F034FC24
:10296000782001F01FF90121082000F02DFC7820CB
:1029700001F018F90121172000F026FC4D4D01202F
:102980004D4C4E4F2860388800047CD5207859285B
:1029900006D046281DD0642836D0632849D063E08D
:1029A000607854287FD100220221304601F0E3F9FB
:1029B00001221021304601F0DEF9002201213046CB
:1029C00001F0D9F90021172000F086FB0121022037
:1029D00048E06078542866D10021172000F07CFB85
:1029E0000121022000F078FB01220221304601F093
:1029F000C2F900221021304601F0BDF90022012168
:102A0000304601F0B8F92FE0607869284BD10021F9
:102A1000172000F061FB0121022000F05DFB002186
:102A20000D2000F059FB00210E2000F055FB002185
:102A300013E06078682836D10121172000F04CFBA4
:102A40000021022000F048FB00210D2000F044FB93
:102A500000210E2000F040FB01210F2000F03CFB84
:102A60000021102000F038FB207862281BD10020C4
:102A7000286000F083FB124800F018FB00220121BF
:102A8000C903104801E010E00DE001F074F90121E4
:102A9000002289030B4801F06EF90121002249034D
:102AA000084801F068F9002038802868002800D024
:102AB00069E7F8BD400000209802002004000020D3
:102AC000E817000000040048F8B5FF4C0122D103CC
:102AD000204601F050F901229103204601F04BF904
:102AE00001225103204601F046F900210F2000F099
:102AF000F3FA01210E2000F0EFFA0021102000F07F
:102B0000EBFA01210D2000F0E7FA0121002000F08E
:102B1000E3FA0021012000F0DFFA0121172000F084
:102B2000DBFA0021022000F0D7FA0924E406002293
:102B30000221204601F01FF901221021204601F058
:102B40001AF900220121204601F015F901210B207C
:102B500000F03AFB642001F025F801210C2000F080
:102B600033FB642001F01EF80121132000F02CFB40
:102B7000782001F017F80121092000F025FB6420DE
:102B800001F010F80121102000F01EFB642001F07C
:102B900009F801210D2000F017FB642001F002F874
:102BA00001210E2000F010FB642000F0FBFF01214A
:102BB000122000F009FB782000F0F4FF012108202A
:102BC00000F002FB0121172000F0FEFA0120BF4DAA
:102BD000BF4F002628603888000477D5BD4C207888
:102BE00059280AD0462843D0432875D044286FD0AE
:102BF00054286ED04A286DD04BE1607854286AD1B1
:102C000000210F2000F068FA01210E2000F064FA84
:102C10000121102000F060FA01210D2000F05CFA83
:102C2000092000220221C00601F0A5F80920012296
:102C30001021C00601F09FF8092000220121C006E2
:102C400001F099F80121122000F0BEFA782000F07E
:102C5000A9FF0121082000F0B7FA0121172000F098
:102C6000B3FA0121172000F037FA0021022059E0C1
:102C700060785428C3D100210F2000F02DFA0121E3
:102C80000E2000F029FA0021102000F025FA012181
:102C90000D2000F021FA092000220221C00601F0D7
:102CA0006AF8092001221021C00601F064F8092009
:102CB00000220121C00601F05EF80121172000F07A
:102CC0000BFA0021022000F007FA58E00CE103E0C3
:102CD0000FE02AE05CE0DDE0607848288FD1012138
:102CE000172000F0F9F90021022000F0F5F9002189
:102CF0000BE060784928BDD10021172000F0ECF9E5
:102D00000121022000F0E8F901210F2000F0E4F990
:102D100001210E2000F0E0F90121102000F0DCF983
:102D200001210D2000F0D8F9B3E060785A28A1D134
:102D3000A0784B2832D00121172000F0CDF9642073
:102D400000F030FF0021022000F0C6F90920012226
:102D50000221C00601F00FF8642000F023FF0920D3
:102D600000221021C00601F006F8642000F01AFFCE
:102D7000092000220121C00600F0FDFF6AE00121C8
:102D8000122000F021FA782000F00CFF012179E0F8
:102D9000607854287ED1A0784B2832D000210F20B3
:102DA00000F09AF901210E2000F096F90021102080
:102DB00000F092F901210D2000F08EF90121002090
:102DC00000F08AF90021012000F086F90121172086
:102DD00000F082F90021022000F07EF90920002293
:102DE0000221C00600F0C7FF092001221021C00601
:102DF00000F0C1FF092000220121C00600F0BBFF46
:102E0000BDE70121172000F067F9642000F0CAFE39
:102E10000021022000F060F9642000F0C3FE0920C8
:102E200001220221C00600F0A6FF642000F0BAFED5
:102E3000092000221021C00600F09DFF642000F050
:102E4000B1FE092000220121C00600F094FF642099
:102E500000F0A8FE00210F2000F03EF901210E2015
:102E600000F03AF90121102000F036F901210D207F
:102E700000F032F90021122000F0A6F9782000F0CD
:102E800091FE0021082000F09FF90121172000F099
:102E90009BF900E027E02078622824D100202E60F2
:102EA00000F06CF90C4800F001F9074C01210022F8
:102EB000C903204600F05FFF01210022890320465C
:102EC00000F059FF002209E0000400484000002003
:102ED0000400002098020020E817000001214903A7
:102EE000204600F048FF3E80174C2088000425D57E
:102EF00016480078302820D115A102202E6004F059
:102F000031FA16A1022004F02DFA002000F036F963
:102F1000134800F0CBF801210022C903114800F04A
:102F20002AFF0121002289030E4800F024FF01211D
:102F3000002249030B4800F01EFF26802868002865
:102F400000D048E6F8BD000002000020D0010020BB
:102F500070616765206D61696E000000FFFFFF0012
:102F6000E81700000004004870B505460024280654
:102F700001D5012000E0002002F006FB022003F052
:102F800009FA012002F0F0FA022003F003FA00200F
:102F900002F0EAFA072C02D1012002F0F5FA6806E5
:102FA000050E042003F0F6F9641CE4B2082CDED30D
:102FB00070BD10B5012002F0D7FA012002F0E4FA4A
:102FC000022003F0E7F9002002F0DEFA022003F00D
:102FD000E1F9002002F0C8FA022003F0DBF910BD8D
:102FE00010B5002002F0C0FA022003F0D3F900204F
:102FF00002F0CAFA022003F0CDF9012002F0B4FA7F
:10300000022003F0C7F9012002F0BEFA042003F009
:10301000C1F910BD00B587B014216846FDF728FA44
:103020000C484269012149040A4342614069084051
:1030300005900320C0020090112001900020029012
:103040000320039009206946C00600F0BDFD07B0CB
:1030500000BD00000010024010B5002002F084FA0C
:10306000022003F097F9012002F08EFA022003F00B
:1030700091F9012002F078FA022003F08BF9002088
:1030800002F072FA10BD70B50D460446FFF791FFCD
:103090002046FFF769FFFFF7DFFF2846FFF764FFD1
:1030A000FFF7DAFFFFF79CFF70BD000010B5C1B25B
:1030B000084C020A21706270000CA0704420FFF7D7
:1030C000E2FF61784620FFF7DEFFA1786020FFF77E
:1030D000DAFF10BD37000020C208D30010B5C01AB7
:1030E000C4B201230D480029815C02D0A3401943DA
:1030F00001E0A34099438154002A06D0012A07D059
:10310000022A09D18178602004E00178442001E09E
:1031100041784620FFF7B7FF10BD000037000020C0
:1031200008B5009313460A460146044802F050FBD6
:1031300000220349014802F07BFA08BD6003002029
:10314000801A060070B504460D460B4802F04CFB91
:103150002146094802F014FB0121074802F0ECFA6D
:103160002946054802F00CFB0121034802F0E4FA6D
:10317000014802F053FB70BD6003002010B5C1B2DE
:10318000084C020A21706270000CA0704420FFF706
:10319000D9FF61784620FFF7D5FFA1786020FFF7BF
:1031A000D1FF10BD3100002010B5C1B2054C000A9E
:1031B000217060704420FFF7C5FF61784620FFF75B
:1031C000C1FF10BD31000020C208D30010B5C01AE5
:1031D000C4B201230D480029815C02D0A3401943E9
:1031E00001E0A34099438154002A06D0012A07D068
:1031F000022A09D18178602004E00178442001E0AE
:1032000041784620FFF79EFF10BD000031000020EE
:1032100010B586B014216846FDF72AF914484269B2
:103220000121C9040A4342614069124C08400590DB
:10323000072040030121009000200191039102909A
:103240006946204600F0C0FC0122D103204600F070
:1032500092FD012100228903204600F08CFD01210E
:1032600000224903204600F086FD06B010BD000094
:103270000010024000080048F8B5184E054600242A
:1032800001212246C903304600F075FD03F07BF8AA
:103290000127BF03280401D5012200E000220121FB
:1032A0004903304600F067FD6804050C03F06BF835
:1032B00001223946304600F05EFD03F064F800223A
:1032C0003946304600F057FD641CE4B2102CE1D3BF
:1032D0000122D103304600F04EFDF8BD0008004841
:1032E00010B5074A074BFDF75FFB0022064BFDF7C1
:1032F00005FEFDF7B3FD80B2FFF7BEFF10BD000075
:1033000014AE47E17A140640E0FFEF40F8B56B4C8D
:103310000122D103204600F02EFD01229103204618
:1033200000F029FD01225103204600F024FD0A206F
:1033300000F038FC01210F20FFF7CEFE01210E2006
:10334000FFF7CAFE00211020FFF7C6FE00210D2066
:10335000FFF7C2FE01210D20FFF736FF782000F0B5
:1033600021FC01210E20FFF72FFF782000F01AFC2E
:1033700001210B20FFF728FF782000F013FC01212A
:103380000C20FFF721FF782000F00CFC0121132016
:10339000FFF71AFF782000F005FC01210920FFF754
:1033A00013FF782000F0FEFB01211120FFF70CFF36
:1033B000782000F0F7FB424D0120424E424F28603A
:1033C0003888010475D58004800CE8603078462880
:1033D00002D0622851D06AE002F04EFF7F20002127
:1033E000C005FFF74DFA0020286200E0401C315C68
:1033F0005029FBD1286201202C46E86116E0216AA1
:10340000081A401EFDF76FFD02460B4600202F49AB
:1034100003F0C0F9FDF7ECFCE169725C303A50430F
:1034200022698018491CE16120610846315C5029FD
:10343000E5D12069FDF757FD0022254BFDF7B4FAD1
:10344000E162A062E268B218203AD27F312A04D049
:10345000322A06D0332A08D00CE0FDF7BBF8002151
:1034600006E0FDF7B7F8022102E0FDF7B3F82821E6
:10347000FFF706FA0020206119E000202860FFF71E
:103480007DFE1448FFF712FE0C4C01210022C903F7
:10349000204600F070FC012100228903204600F044
:1034A0006AFC012100224903204600F064FC002050
:1034B00038802868002883D1F8BD00000004004847
:1034C000400000209802002004000020000024405A
:1034D00000408F40E8170000002804D00821491E52
:1034E000FDD1401EFAD1704710B50446042000F00B
:1034F000B9FF0148048010BD340000207D2100B5D3
:10350000C900484300F01CF800BD000070B50B4C2A
:1035100000226569A16907280FD3C01FA3698B42E8
:10352000FCD08B4202D2C91A8A1803E0EE1A711835
:103530008A18521C19468242F0D370BD00E000E0A8
:1035400070B50A4C002365690949A2690988484396
:10355000A1699142FCD0914201D2521A01E06E1A47
:10356000B218D3180A468342F2D370BD00E000E0DF
:103570003400002072B6FEE7F8B50926F6060022F0
:103580000221304600F0F7FB00221021304600F007
:10359000F2FB01221146304600F0EDFB00210D2028
:1035A000FFF79AFD01210E20FFF796FD01210F2064
:1035B000FFF792FD00211020FFF78EFD01210D2065
:1035C000FFF702FE782000F0EDFA01210E20FFF750
:1035D000FBFD782000F0E6FA01210B20FFF7F4FD57
:1035E000782000F0DFFA01210C20FFF7EDFD7820B4
:1035F00000F0D8FA01210920FFF7E6FD782000F05D
:10360000D1FA01211320FFF7DFFD782000F0CAFA7C
:1036100001210320FFF7D8FD01211520FFF7D4FD7C
:10362000304D0120304C314F28603888000454D58B
:103630002078592802D046280FD030E060785428EE
:1036400049D101220221304600F095FB01221021D0
:10365000304600F090FB00220DE0607854283AD10B
:1036600000220221304600F086FB00221021304665
:1036700000F081FB01220121304600F07CFB00219B
:103680000D20FFF729FD01210E20FFF725FD012167
:103690000F20FFF721FD00211020FFF71DFD2078EE
:1036A000622818D100202860FFF768FD1048FFF756
:1036B000FDFC01210022C9030E4800F05CFB012142
:1036C000002289030B4800F056FB01210022490328
:1036D000084800F050FB0020388028680028A4D15A
:1036E000F8BD0000400000209802002004000020E7
:1036F000E817000000040048F8B5FC4C0122D10393
:10370000204600F038FB01229103204600F033FBF5
:1037100001225103204600F02EFB01210F20FFF76C
:10372000DBFC01210E20FFF7D7FC00211020FFF762
:10373000D3FC01210D20FFF7CFFC01211520FFF75D
:10374000CBFC00211620FFF7C7FC0924E406012268
:103750000221204600F00FFB01221021204600F03C
:103760000AFB00220121204600F005FB01210B206D
:10377000FFF72AFD782000F015FA01210C20FFF751
:1037800023FD782000F00EFA01210E20FFF71CFD2A
:10379000782000F007FA01210D20FFF715FD7820B1
:1037A00000F000FA01211320FFF70EFD782000F051
:1037B000F9F901210920FFF707FD782000F0F2F95F
:1037C00001211520FFF700FD01210320FFF7FCFC7C
:1037D0000120C74DC74F002628603888000476D5E1
:1037E000C54C2078592806D0462832D054283DD0E0
:1037F0004A286DD0D7E0607854286AD100210F2084
:10380000FFF76AFC00210E20FFF766FC0121102063
:10381000FFF762FC01210D20FFF75EFC0920012269
:103820000221C00600F0A7FA092001221021C006DB
:1038300000F0A1FA092000220121C00600F09BFA45
:1038400001211520FFF748FC00211620FFF744FC5A
:103850006EE060785428D0D100210F20FFF73CFCA7
:1038600000210E20FFF738FC012173E060785A2810
:10387000C3D1A0784B282DD0092000220221C006F8
:1038800000F079FA092000221021C00600F073FA36
:10389000012209201146C00600F06DFA0021152012
:1038A000FFF71AFC01211620FFF716FC00210F205C
:1038B000FFF712FC00210E20FFF70EFC0121102063
:1038C000FFF70AFC01210D20FFF706FC63E0DEE0B4
:1038D00031E0DBE001210F20FFF7FEFB01210E208C
:1038E000FFF7FAFB00211020FFF7F6FB01210D2066
:1038F000FFF7F2FB01211520FFF7EEFB0021162058
:10390000FFF7EAFB092001220221C00600F033FA8A
:10391000092001221021C00600F02DFA0920002202
:103920000121C00600F027FA01211520FFF74CFC09
:103930000121032035E0607854288CD1A0784B28F1
:1039400035D001210F20FFF7C7FB01210E20FFF723
:10395000C3FB00211020FFF7BFFB01210D20FFF763
:10396000BBFB01211520FFF7B7FB00211620FFF755
:10397000B3FB092001220221C00600F0FCF9092056
:1039800001221021C00600F0F6F9092000220121D1
:10399000C00600F0F0F901210320FFF715FC01211A
:1039A0001520FFF711FC2078622855D06EE0092021
:1039B00000220221C00600F0DEF9092000221021B9
:1039C000C00600F0D8F9012209201146C00600F017
:1039D000D2F900211520FFF77FFB01211620FFF708
:1039E0007BFB00210F20FFF777FB00210E20FFF764
:1039F00073FB01211020FFF76FFB01210D20FFF762
:103A00006BFB01210E20FFF7DFFB782000F0CAF8E6
:103A100001210D20FFF7D8FB782000F0C3F8012129
:103A20000B20FFF7D1FB782000F0BCF801210C201F
:103A3000FFF7CAFB782000F0B5F801211320FFF74B
:103A4000C3FB782000F0AEF801210920FFF7BCFB92
:103A5000782000F0A7F89EE700202E60FFF78EFB8D
:103A60002648FFF723FB214C01210022C9032046F1
:103A700000F081F9012100228903204600F07BF942
:103A8000012100224903204600F075F93E801C4CBC
:103A90002088000425D51B480078302820D11AA1A1
:103AA00002202E6003F05EFC1AA1022003F05AFCF3
:103AB0000020FFF763FB1148FFF7F8FA012100220D
:103AC000C9030A4800F057F9012100228903074879
:103AD00000F051F9012100224903044800F04BF99C
:103AE00026802868002817D077E6000000040048E8
:103AF000400000200400002098020020E817000089
:103B000002000020D001002070616765206D6169AE
:103B10006E000000FFFFFF00F8BD30B50146203108
:103B20004B780022022B04D0042383630A70012007
:103B300030BD03681C680E25AC431C6003681C681C
:103B4000640864001C600123056C1C46C06BAC401B
:103B500044604B700A70002030BD70B500240146EF
:103B600020314A78022A03D004218163012416E01F
:103B7000026813680E25AB431360026813685B0884
:103B80005B0013600122056C1346AB40C56B6B6094
:103B90004A7000220A70416B002900D088472046F5
:103BA00070BD000070B5044600F0ECF80546601CDE
:103BB00002D004480078241800F0E4F8401BA0422A
:103BC000FAD370BD08000020F8B5002303240125B6
:103BD000BAE02E469E40B44632407CD00E79B607FD
:103BE000B60F012E01D0022E17D186682746B646A1
:103BF0005E00B74000967646BE43B646CF68009E4C
:103C0000B74076463743876046686746BE430F79BC
:103C1000FF06FF0F9F40374347600E79F643B60714
:103C20000ED0C6682746B4465E00B646B740664624
:103C3000BE43B4468F687646B74066463743C76092
:103C40000E79B607B60F022E14D1DE08B60036186C
:103C50000096366A5F07B446FE0E0F27B646B74099
:103C60006646BE43B4460F697646B740664637435C
:103C7000009E376206682746B4465E00B646B740E7
:103C80006646BE430F79B446BF07BF0F7646B740BE
:103C90006646374307604E68B603B60F53D02D4FC4
:103CA000BE692E43BE61BE699F08F607F60F2A4E15
:103CB000BF00BE190096B6680F27B4469E07360FA0
:103CC000B646B7406646BE430927FF06B446B8422B
:103CD00002D1002710E036E0204FB84201D1012781
:103CE0000AE01F4FB84201D1022705E01D4FB8423C
:103CF00001D1032700E005277646B74066463743E3
:103D0000009EB760184E36684F689643FF0300D593
:103D10001643154F3E607E684F689643BF0300D53B
:103D20001643114F7E60BE684F689643FF0200D570
:103D300016430D4FBE60FE684F689643BF0200D524
:103D40001643094AD6605B1C0A681646DE4000D05E
:103D50003FE7F8BD001002400000014000040048A9
:103D600000080048000C00480004014000690840B9
:103D700000D001207047002A01D081617047816224
:103D8000704700000148806870470000080000206C
:103D90000248816802788918816070470800002015
:103DA00010B506480168102211430160032000F09D
:103DB00007F800F027F8002010BD000000200240A6
:103DC00070B504460D4D7D202978C000FCF752FBEC
:103DD00001460B480068FCF74DFB00F04FFB002844
:103DE00009D1042C07D200222146401E00F02AF8F7
:103DF00000206C6070BD012070BD00000800002034
:103E00001400002008B5084881690122114381612E
:103E1000816911400091C26901040A43C261C0690D
:103E20000840009008BD000000100240002805DB9B
:103E3000C106C90E01208840014908607047000092
:103E400000E100E010B502F0F7F810BDF8B5054646
:103E50000068354CC00352D5E0690026C00007D485
:103E6000E16920040143E161E1690140012600911B
:103E70002E480168C90510D40168821511430160FC
:103E8000FFF780FF074604E0FFF77CFFC01B6428B4
:103E900024D826480068C005F6D5206A03273F02CB
:103EA000384020D06968394081421CD0206A226A9B
:103EB000B843012109040A432262226A8A4322622A
:103EC0002062C0070FD0FFF75DFF009008E0FFF70A
:103ED00059FF0099411A1648814201D90320F8BDC3
:103EE000206A8007F3D5206A6968B84308432062D6
:103EF000002E04D0E169012000078143E1612878A8
:103F0000C00705D0206BA9688008800008432063A3
:103F10002878800605D5206B10218843E96808437E
:103F200020630020F8BD0000001002400070004037
:103F300088130000F8B50F46060059D03A4D28689E
:103F4000C007C00FB84209D2286840084000384373
:103F500028602868C007C00FB84249D13068334C88
:103F600081070CD5400704D5606807210902084382
:103F700060606068F0218843B16808436060307811
:103F8000C00726D0706801280ED0216802280ED004
:103F9000890700292CDA616889088900014361607A
:103FA000FFF7F0FE00900DE021688903F1E7890139
:103FB000EFE7FFF7E7FE0099411A1D48814201D95A
:103FC0000320F8BD60680C210840716889008842B0
:103FD000EFD12868C007C00FB8420BD92868400845
:103FE0004000384328602868C007C00FB84201D09D
:103FF0000120F8BD3078400706D560680721090226
:104000008843F1680843606000F028F86168094A55
:104010000906090F515CC840074908600320FFF7F3
:10402000CFFE0020F8BD000000200240001002403A
:104030008813000010770008140000200448054988
:1040400000684968044A4905490F515CC8407047F7
:1040500014000020001002402077000810B514A3BF
:104060000FCB88B06C460FC415A30FCB0FC4184AF2
:1040700051680C200B4603401648042B16D0082B21
:1040800014D18B021B0F6C46E45CD26A04AB12079E
:10409000120F9A5CC90305D500231946FCF7A6F850
:1040A000214601E020460C4901F08AFF08B010BD0E
:1040B00002030405060708090A0B0C0D0E0F101069
:1040C0000102030405060708090A0B0C0D0E0F1068
:1040D0000010024000127A0000093D00FEB5040005
:1040E00070D02078DC4DC0074AD068680007800F88
:1040F000012807D068680007800F022809D1686886
:10410000C00306D5286880033AD560680028E7D048
:1041100036E06168012914D001208004002901D013
:10412000052914D02A68012109048A432A602968D4
:10413000814329606068002816D0FFF723FE0646F9
:104140000EE028680121090408432860F2E7296885
:1041500001432960F5E7FFF715FE801B64286ED840
:1041600028688003F7D50BE0FFF70CFE064604E055
:10417000FFF708FE801B6428F1D828688003F7D475
:1041800020780126800700283CDA68680007800F45
:1041900007D068680007800F022809D16868C0034B
:1041A00006D42868800716D5E06801280AD112E0F5
:1041B000E0680028286816D030432860FFF7E2FD49
:1041C000074605E043E1FFF7DDFDC01B0228C6D826
:1041D00028688007F7D52868F82188432169C90035
:1041E000084328600EE0400840002860FFF7CAFD41
:1041F000074604E0FFF7C6FDC01B0228AFD82868B9
:104200008007F7D42078000722D5E0690028686A83
:104210000ED030436862FFF7B5FD074604E0FFF7B4
:10422000B1FDC01B02289AD8686A8007F7D50FE055
:10423000400840006862FFF7A5FD074605E09DE0E5
:10424000FFF7A0FDC01B022889D8686A8007F7D451
:10425000207804274007002860DA00200190E869F0
:10426000C00008D4E969B8060143E961E969014081
:1042700001200091019079480168C90511D40168B5
:10428000821511430160FFF77DFD009005E0FFF707
:1042900079FD0099401A642870D870480068C005FC
:1042A000F5D5A06801280AD0002801D0052810D033
:1042B000286A400840002862286AB84301E0286A5A
:1042C00030432862A068002812D0FFF75BFD009001
:1042D0000AE0286A38432862F1E7FFF753FD0099A6
:1042E000411A5F48814249D8286A8007F5D50DE018
:1042F000FFF748FD009006E0FFF744FD0099411AE2
:10430000574881423AD8286A8007F5D40198002896
:1043100004D0E969012000078143E9612078C006E3
:1043200035D5606901280CD0401D686B23D0384317
:104330006863686B400840006863FFF723FD06462A
:1043400022E0686B38436863686B30436863FFF74B
:1043500019FD064604E0FFF715FD801B02285BD817
:10436000686B8007F7D5686BF8218843A169C9009D
:10437000084368630BE0B8436863F4E74CE0FFF779
:1043800001FD801B022847D8686B8007F7D4206A9C
:1043900000285ED069680907890F022942D00126EA
:1043A00036060228286805D0B0432860FFF7EAFCEB
:1043B000044633E0B0432860FFF7E4FC074604E01E
:1043C000FFF7E0FCC01B022826D828688001F7D43C
:1043D000E86AE16A000900010843E862616AA06ACC
:1043E000084369683D2212049143084368602868C5
:1043F00030432860FFF7C6FC044604E0FFF7C2FC28
:10440000001B022808D828688001F7D521E0FFF7B3
:10441000B9FC001B022801D90320FEBD28688001D9
:10442000F5D416E00128F8D06868E96A0122120480
:10443000636A02409A420AD10907E26A090F91426F
:1044400005D10F2189040840A16A884201D00120CA
:10445000FEBD0020FEBD00000010024000700040C4
:1044600088130000042204490428086902D09043FC
:10447000086170471043FBE700E000E0094910B510
:10448000401E884201D9012010BD074C6061032104
:10449000081F01F0D1FD0020A0610720206100204D
:1044A00010BD0000FFFFFF0000E000E07047704714
:1044B000F0B502462032137F012B1ED0012515775F
:1044C0000223537706687468B3687027BC430F688B
:1044D0002743776000680A4CA04205D0094CA042EF
:1044E00002D0094CA04204D180244968A343194357
:1044F0008160557700201077F0BD0220F0BD0000EC
:10450000002C0140000400400040014070B5040050
:1045100005D025462035687F002802D006E001201E
:1045200070BD00202877204600F014F8022068773C
:10453000211D206801F0D2F901204034A071A87734
:10454000E87720706070A070E0702071607168770B
:10455000002070BD08B50068094988420FD109489C
:10456000C26902210A43C261C0690022084000906A
:1045700011461020FFF766FC1020FFF757FC08BD1E
:104580000004004000100240F8B5054604462035FE
:10459000287F0026012817D001202877022068777D
:1045A000226890687727FF23B8431B0298439060E6
:1045B0000868502838D00EDC20284FD006DC0028B0
:1045C0004CD010281ED149E00220F8BD302845D03B
:1045D000402817D13AE060282ED0702819D0012247
:1045E0001203801A0FD090420CD1CB684A688968B8
:1045F000206801F0B7F92068816801229203114315
:10460000816000E00126012068770020287730468D
:10461000F8BDCB684A688968206801F0A3F9216871
:10462000886838438860EEE7CA684968206801F006
:10463000ACF95021206806E0CA684968206801F09A
:10464000B5F96021206801F098F9DCE7CA6849688B
:10465000206801F09AF940212068F4E722680146B9
:104660001046F0E7704770B5044600680169002500
:10467000C9438907002915DBC168C943890711D4DB
:10468000E91E0161012020772068806980072046AB
:1046900002D0FFF7E7FF04E000F096F8204600F0B4
:1046A00094F8257720680169C943490717D4C16880
:1046B000C943490713D40421C9430161022020776B
:1046C000206880698005800F204602D0FFF7CAFF6E
:1046D00004E000F079F8204600F077F825772068AC
:1046E0000169C943090716D4C168C943090712D42F
:1046F0000821C9430161042020772068C069800730
:10470000204602D0FFF7AEFF04E000F05DF820463F
:1047100000F05BF8257720680169C943C90617D402
:10472000C168C943C90613D41021C94301610820D7
:1047300020772068C0698005800F204602D0FFF7EF
:1047400091FF04E000F040F8204600F03EF82577A5
:1047500020680169C943C90708D1C168C943C907AD
:1047600004D1891E0161204600F030F820680169FB
:10477000C943090609D4C168C943090605D4802183
:10478000C94301612046FFF791FE20680169C943D2
:10479000490609D4C168C943490605D44021C94323
:1047A0000161204600F013F820680169C9438906B9
:1047B00009D4C168C943890605D42021C9430161D0
:1047C0002046FFF774FE70BD704770477047704712
:1047D000704770470146806FC96F084370470000FB
:1047E000F8B502680446D069116896689C4B054686
:1047F0001D402023002D75D0F7079A4DFF0FBC46B2
:104800000D402F436DD02546C7078035002F06D0B9
:10481000CF0504D5012717622A683A432A60820728
:1048200008D5F20706D0276802223A622A680427D0
:104830003A432A60420708D5F20706D026680422C8
:1048400032622A68022632432A6002070AD50A46E3
:104850001A406646324305D02668082232622E6826
:1048600016432E60020508D54A0106D501222668A6
:10487000D20232622A681A432A602A68002A39D092
:10488000800606D5880604D5616E002901D0204631
:104890008847286821688968490602D42821084287
:1048A0002DD0204601F036F921688868400622D5CF
:1048B000EFF31080012282F310888B68402293432B
:1048C0008B6080F31088206F002814D06649416304
:1048D000206FFFF742F900280CD0206F416B08E0F1
:1048E00000E012E0850610D58D060ED5616E9DE0C4
:1048F00020468847F8BD2046FFF76BFFF8BD2046ED
:10490000FFF767FF00202860F8BD256E012D7DD1DF
:10491000C5067BD5CD0679D510261662226890682B
:10492000254640064035002845DA216F0868406872
:104930000004000CE8D02F8B8742E5D96883886992
:10494000202833D0EFF31080012181F31088116803
:104950003701B943116080F31088EFF31080012113
:1049600081F3108821688A68520852008A6080F3B7
:104970001088EFF31080012181F3108821688A6884
:104980004027BA438A6080F31088E36700202066DE
:10499000EFF31080012181F3108821680A68B24387
:1049A0000A6080F31088206FFFF7B7F8288B698BB7
:1049B000401A81B231E0288B698B401A81B2688B32
:1049C0000028A1D000299FD0EFF31080012585F3A6
:1049D00010881568FF272137BD43156080F31088C4
:1049E000EFF31080012282F31088226895686D0829
:1049F0006D00956080F31088E36700202066606694
:104A0000EFF31080012282F3108800E009E02268B1
:104A10001368B343136080F310882046FFF7D8FE75
:104A2000F8BD050606D50D0604D5A16E002900D0F7
:104A30005EE7F8BD4006FCD54806FAD52046EFF300
:104A40001081012484F3108814684025AC4314605D
:104A500081F3108883670021816600F07AF9F8BD40
:104A60000F08000020010004015B000810B50400DD
:104A700003D0A06F002802D007E0012010BD002164
:104A800074200155204600F027F82420A0672068F4
:104A90000168490849000160204601F013F9012826
:104AA000ECD0606A002802D0204600F092FF206817
:104AB00041680122D2029143416020688168082246
:104AC0009143816020680168012211430160204602
:104AD00000F0E4FF10BD0000F0B587B004461421DB
:104AE0006846FBF7C5FC264F0121266800222548B1
:104AF0004904022303240125BE421DD18769CE103B
:104B00003743876187693740059746690E43466199
:104B100040690193084005906002009002AE34C6DF
:104B200009206946C006FFF74FF8002211461B20F6
:104B3000FFF788F91B201EE0134FBE421DD1C66946
:104B40000E43C661C6690E40059646690E4346612E
:104B500040690193084005900C20009002AE34C6D5
:104B600009206946C006FFF72FF8002211461C20D5
:104B7000FFF768F91C20FFF759F907B0F0BD0000F6
:104B800000380140001002400044004070B5C36F7F
:104B9000202B2BD100290BD0002A09D001248368B7
:104BA0002403A34206D10369002B03D1CB0701D014
:104BB000012070BD034660331C7D012C16D00124FA
:104BC0001C7500230366046863681B020BD5EFF3B2
:104BD0001083012585F3108825680126B606354324
:104BE000256083F3108801F007F970BD022070BDC5
:104BF00070B5012400681A49E40300226510884258
:104C000013D1184801880B0406D4174B4E041B78A7
:104C100003D50A2B20D0028070BD0D2B1ED08C0432
:104C2000A40C124D11E0018070BD11498842FBD1E6
:104C3000104801880B04F7D40F4B4E041B78E8D4BE
:104C40000D2B0BD08C040D4DA40C491C89B22B5597
:104C50000180C729DFD870BD2143E4E72943E2E79B
:104C6000003801400200002000000020D001002098
:104C700000440040040000200100002098020020B1
:104C8000FFB50446806F83B017460D4620285ED1DD
:104C9000002D0AD0002F08D0A168C001814207D1A1
:104CA0002069002804D1E80702D0012007B0F0BD38
:104CB000204660300090007D012848D000980121F6
:104CC00001750020802108512120A067FFF75AF8C4
:104CD000264640360190378277820120A168000382
:104CE000814202D12069002805D02F460025009975
:104CF0000020087511E00027F9E7002280212046F6
:104D000001F0C8F8002815D1002F15D02168387897
:104D100008857F1C708A401E7082708A019B002863
:104D200006980090E9D100224021204601F0B2F817
:104D3000002808D00320B9E728882168C005C00DE5
:104D40000885AD1CE6E72020A0670020AEE7022022
:104D5000ACE77047FEE70000F0B587B01421684665
:104D6000FBF786FB24484269012189050A43426119
:104D700042690A400592426949110A434261426907
:104D80000A400592426949000A4342614069002293
:104D90000840059009201321C006FEF7ECFF072606
:104DA000164F7603012231463846FEF7E4FF012212
:104DB00009201102C006FEF7DEFFFF201430012497
:104DC0000025694631C109206946C0060394FEF7F3
:104DD000FBFE019469463846009602950394FEF75F
:104DE000F3FEE00300900920694601950294C00695
:104DF000FEF7EAFE07B0F0BD0010024000040048D4
:104E000010B586B000240094154916480194029408
:104E100003940494059412C00460134984604160B3
:104E2000802101610838FFF771FB002801D0FEF7EF
:104E3000A1FB01200003009069460A48FFF7A4FB8C
:104E4000002801D0FEF796FB049404A905480594B8
:104E5000FFF72EFB002801D0FEF78CFB06B010BD3B
:104E60000004004080000020FFFF000010B50F4844
:104E70000D490160E1214902416000218160C1606A
:104E800001618161C1610C22016242614162FFF7EF
:104E9000EDFD002801D0FEF76DFB01220449034817
:104EA000FFF774FE10BD000000380140C80000206C
:104EB0000000002010B50F480D490160E1214902B2
:104EC000416000218160C16001618161C1610C228A
:104ED000016242614162FFF7C9FD002801D0FEF77F
:104EE00049FB012204490348FFF750FE10BD0000B2
:104EF000004400404C01002001000020FEE70000BB
:104F0000F8B5614E0122D1033046FEF734FF01228D
:104F100091033046FEF72FFF012251033046FEF782
:104F20002AFF00210F20FEF7D7F800210E20FEF700
:104F3000D3F800211020FEF7CFF800210D20FEF756
:104F4000CBF801210D20FEF73FF97820FEF72AFE6D
:104F500001210E20FEF738F97820FEF723FE01210B
:104F60000C20FEF731F97820FEF71CFE01210B2002
:104F7000FEF72AF97820FEF715FE01211320FEF72F
:104F800023F97820FEF70EFE01210920FEF71CF917
:104F90007820FEF707FE01211620FEF715F978208C
:104FA000FEF700FE01210020FEF70EF9012137482F
:104FB000374C384D00270160288800045ED52078E2
:104FC000532812D16078572857D1A0784138030070
:104FD00001F00EF8060411192129310B207930282F
:104FE00007D000210620FEF777F8207862282AD023
:104FF00043E00121F6E72079302802D00021052086
:10500000F1E70121FBE72079302802D000210720B9
:10501000E9E70121FBE72079302802D000210820B0
:10502000E1E70121FBE72079302802D000210920A7
:10503000D9E70121FBE72079302802D000210A209E
:10504000D1E70121FBE7114807600020FEF796F841
:105050001148FEF72BF801210022C9033046FEF764
:105060008AFE0121002289033046FEF784FE0121D9
:10507000002249033046FEF77EFE2F800348006879
:10508000002899D1F8BD000000040048400000202D
:105090009802002004000020E8170000F8B5012263
:1050A000D103CB48FEF767FE0A20FEF77BFD002107
:1050B0000C20FEF711F801210420FEF70DF8002165
:1050C0000B20FEF709F801210E20FEF77DF878206D
:1050D000FEF768FD01210D20FEF776F87820FEF737
:1050E00061FD00210B20FEF76FF801210C20FEF777
:1050F0006BF83220FEF756FD00211320FEF764F80E
:105100007820FEF74FFD00210920FEF75DF878209A
:10511000FEF748FD01211020FEF756F87820FEF733
:1051200041FD01210846FEF74FF87820FEF73AFDD1
:1051300001F0DAF8A74C01202060A74A1188080482
:105140007DD5002020636063A06060618804800CCE
:10515000E060A2480078502872D1002222621146F5
:105160009E48636803E02E2D00D10123491C455C55
:105170004D2DF8D163602162012B02D0002B72D03B
:1051800096E0226200E0521C815C2E29FBD1226253
:10519000521EE2611EE09148C05D3038FBF7A3FE6D
:1051A0000546206A0E46C01B401EFBF79CFE0246C9
:1051B0000B4600208A4901F0EDFA2A463346FBF7F8
:1051C0009DFE636B226BFBF7BFFB61632063E069AD
:1051D000401EE061E769002FDDDC804E256A701912
:1051E0004178312914D18178322911D1C0784D28E4
:1051F0000ED100227B4B616B206BFBF77FFE002200
:10520000794BFBF7A1FBFBF7F3FD606201206061C6
:105210006D1CE56120E07148C05D3038FBF763FE2E
:105220000546206A0E46C01BFBF75DFE02460B4694
:1052300000206B4901F0AEFA2A46334601E0BFE098
:1052400095E0FBF75BFE636B226BFBF77DFB616315
:105250002063E069401CE061E068E769401E874226
:10526000D9DB25E0FFE70121E1611CE03038FBF7E5
:105270003AFE0546E0680E46C01B801EFBF733FE73
:1052800002460B460020564901F084FA2A4633466E
:10529000FBF734FE636B226BFBF756FB6163206305
:1052A000E069401CE0614D48E769C05D4D28DDD1F3
:1052B0006069002808D100224A4B616B206BFBF724
:1052C0001DFEFBF795FD6062484D606A2946FBF7BD
:1052D000DBF800291DD046A1022002F043F8294640
:1052E000606AFBF7D1F8294648430246A06148A10D
:1052F0004848FAF7FDFF4749022002F033F846A17B
:10530000022002F02FF845A1022002F02BF8012024
:10531000A0602946606AFBF7B7F881B2404800F008
:1053200009F901250926ED03F60629463046FEF760
:105330001DFD00280AD0A068002807D139A102204D
:1053400002F010F835A1022002F00CF82946304690
:10535000FEF70CFD00280AD1A068002807D137A16C
:10536000022001F0FFFF2DA1022001F0FBFF1B48EE
:105370000078622821D101210B20FDF7ADFE00212C
:105380000420FDF7A9FE00202060FDF7F7FE31485C
:10539000FDF78CFE0E4D01210022C9032846FEF7C1
:1053A000EAFC0121002289032846FEF7E4FC0121E2
:1053B000002249032846FEF7DEFC0749002008804A
:1053C000002060602068002800D0B6E6F8BD00002C
:1053D0000004004840000020040000209802002043
:1053E0000000244080842E41004CFD40204E0000EF
:1053F00074332E7478743D22BEABB6C8B9FDB8DFE5
:10540000A3ACCAB5BCCAC6B5C2CAA3BA00000000E4
:10541000256400003C040020485A2200FFFFFF00E2
:10542000E204000074332E7478743D22CBF8B6A8E1
:10543000BCECB2E2A3BAD2D1CBF8220074332E7402
:1054400078743D22CBF8B6A8BCECB2E2A3BACEB4D5
:10545000CBF82200E8170000F8B50122D1032F484D
:10546000FEF789FC01210C20FDF736FE00210F20FC
:10547000FDF732FE00210E20FDF72EFE0021102048
:10548000FDF72AFE01210D20FDF726FE0021032055
:10549000FDF722FE01210D20FDF796FE6420FEF7A8
:1054A00081FB01210E20FDF78FFE7820FEF77AFBAD
:1054B00001211020FDF788FE7820FEF773FB012103
:1054C0000420FDF781FE0120154C164F164D0026D5
:1054D0002060288800041CD53878622818D1002064
:1054E0002660FDF74BFE1148FDF7E0FD012100228B
:1054F000C9030A48FEF73FFC01210022890307483F
:10550000FEF739FC0121002249030448FEF733FC71
:105510002E8020680028DCD1F8BD0000000400487F
:10552000400000209802002004000020E81700003E
:105530007047000070B585000C022846641C00F01E
:1055400035F8204600F032F8064E306800F02EF8AC
:10555000706800F02BF8204600F028F8284600F08C
:1055600025F870BD200000200121092310B5C902D3
:10557000DB06012806D0002803D100221846FEF7DA
:10558000FAFB10BD0122F9E70121092310B5090337
:10559000DB06012806D0002803D100221846FEF7BA
:1055A000EAFB10BD0122F9E77047000070B51F4DFE
:1055B0000646002220212846FEF7DDFB00220821B6
:1055C0002846FEF7D8FB0024300201D5012200E076
:1055D000002210212846FEF7CEFB76000122202172
:1055E0002846FEF7C8FB6420FDF776FF0022202145
:1055F0002846FEF7C0FB6420FDF76EFF641CE4B292
:10560000182CE1D3002210212846FEF7B4FB00221B
:1056100008212846FEF7AFFB6420FDF75DFF01225D
:1056200008212846FEF7A7FB70BD000000040048D3
:1056300070B515460E46044609210268C906384869
:1056400086B08A4202D062688A4207D1426901214B
:1056500049040A43426142690A400592314922687D
:105660008A4202D062688A4207D1426901218904D4
:105670000A43426142690A4005922B4922688A42E4
:1056800002D062688A4207D142690121C9040A43F3
:10569000426142690A400592244922688A4202D046
:1056A00062688A4207D14269012109050A434261C1
:1056B00042690A4005921E4922688A4202D0626805
:1056C0008A4207D14269012189050A434261406942
:1056D000084005902168608988616168A0898861B7
:1056E0006089009011200190012002900320039016
:1056F00069462068FEF768FAA089009069466068EC
:10570000FEF762FA31460B48FAF7B4FEC003000C0C
:10571000E0814008401C2082A57406B070BD0000E6
:10572000001002400004004800080048000C004837
:1057300000140048006CDC0270B504460D46408938
:10574000216800048861208AFDF7E0FEA089002D11
:1057500001D0002100E01021884061688861208A22
:10576000FDF7D4FE216860898861E089FDF7CEFEEF
:105770006089216800048861208AFDF7C7FE70BD3A
:1057800070B504460E4640892168000488610725EB
:105790003146A089E940C90701D0002100E010216D
:1057A000884061688861208AFDF7B0FE21686089C1
:1057B0008861E089FDF7AAFE60892168000488619C
:1057C000208AFDF7A3FE6D1E6DB2002DE0DA70BDDC
:1057D00010B5029C0AC001210B4602709340447030
:1057E0004380A140818010BD10B5044621684089E6
:1057F00088616168A0898861E089FDF787FEA089DA
:10580000616800048861E089FDF780FE6089216895
:1058100000048861E089FDF779FE10BD10B50446EB
:105820004089216800048861A0896168000488615A
:10583000208AFDF76BFE216860898861E089FDF7A9
:1058400065FE6168A0898861E0894000FDF75EFE21
:1058500010BD10B5FEF79CFA10BD70B594B03021A4
:105860006846FAF705FE002401250E9428041394D7
:105870000F9409900D941094009500010C941294CB
:10588000022601950A90119408960B946846FEF73B
:1058900025FC002801D072B6FEE707200C900E947C
:1058A00001210D960F940CA8FEF744FB002801D0AF
:1058B00072B6FEE710A810951294FEF7C7FA0028FA
:1058C00001D072B6FEE714B070BD704710B5024843
:1058D000FEF7C9FE10BD000080000020F0B5026890
:1058E0001A4B1B4C984201D0A04203D17025AA4309
:1058F0004D682A43174D184E184F98420AD0A042BF
:1059000008D0174CA04205D0A84203D0B04201D025
:10591000B84205D11446032212029443CA682243B6
:105920008024A2434C69224302608A68C2620A68EA
:105930008262984205D0A84203D0B04201D0B8425A
:1059400001D10969016301214161F0BD002C0140D1
:105950000004004000400140004401400048014074
:105960000020004030B58468FF252D021B02134340
:10597000AC430B432343836030BD826870239A435A
:105980000A4307210A438260704730B5036A046AFC
:105990006408640004628469F025AC431201224368
:1059A0000A24A3430B438261036230BD30B5036A0E
:1059B0001024A34303628469036A0F252D03120395
:1059C000AC432243A024A34309011943826101622D
:1059D00030BD10B5818CC90707D001684A68012322
:1059E0005B049A43836A1A434A60818C890707D50E
:1059F00001684A6801231B049A43C36A1A434A6038
:105A0000818C490707D501684A6801239B049A43A2
:105A1000036B1A434A60818C090707D501684A68FD
:105A20000123DB039A43436B1A434A60818CC90606
:105A300007D50268916801231B039943836B1943BF
:105A40009160818C890607D501688A6801235B0310
:105A50009A43C36B1A438A60818C490612D5036846
:105A60005A6801210905046C8A4322435A60026C7A
:105A70008A4207D10268516803235B059943436C4E
:105A800019435160818C090607D501684A680123D2
:105A9000DB04806C9A4302434A6010BDF8B50446AB
:105AA000002680300660FEF76DF905462068006824
:105AB000124F000709D501212B4600224905204637
:105AC000009700F0E7F900280DD120680068400732
:105AD0000BD501212B46002289052046009700F0B6
